{
  "contractName": "Organization",
  "abi": [
    {
      "constant": false,
      "inputs": [],
      "name": "renounceOwnership",
      "outputs": [],
      "payable": false,
      "stateMutability": "nonpayable",
      "type": "function"
    },
    {
      "constant": true,
      "inputs": [],
      "name": "owner",
      "outputs": [
        {
          "name": "",
          "type": "address"
        }
      ],
      "payable": false,
      "stateMutability": "view",
      "type": "function"
    },
    {
      "constant": true,
      "inputs": [],
      "name": "isOwner",
      "outputs": [
        {
          "name": "",
          "type": "bool"
        }
      ],
      "payable": false,
      "stateMutability": "view",
      "type": "function"
    },
    {
      "constant": true,
      "inputs": [],
      "name": "_owner",
      "outputs": [
        {
          "name": "",
          "type": "address"
        }
      ],
      "payable": false,
      "stateMutability": "view",
      "type": "function"
    },
    {
      "constant": true,
      "inputs": [],
      "name": "isManager",
      "outputs": [
        {
          "name": "",
          "type": "bool"
        }
      ],
      "payable": false,
      "stateMutability": "view",
      "type": "function"
    },
    {
      "constant": true,
      "inputs": [],
      "name": "_manager",
      "outputs": [
        {
          "name": "",
          "type": "address"
        }
      ],
      "payable": false,
      "stateMutability": "view",
      "type": "function"
    },
    {
      "constant": false,
      "inputs": [
        {
          "name": "newOwner",
          "type": "address"
        }
      ],
      "name": "transferOwnership",
      "outputs": [],
      "payable": false,
      "stateMutability": "nonpayable",
      "type": "function"
    },
    {
      "inputs": [
        {
          "name": "_orgAccount",
          "type": "address"
        },
        {
          "name": "_username",
          "type": "string"
        },
        {
          "name": "_password",
          "type": "string"
        },
        {
          "name": "_orgName",
          "type": "string"
        },
        {
          "name": "_contactPerson",
          "type": "string"
        },
        {
          "name": "_phone",
          "type": "string"
        },
        {
          "name": "_orgAddress",
          "type": "string"
        },
        {
          "name": "_email",
          "type": "string"
        },
        {
          "name": "_industryType",
          "type": "string"
        }
      ],
      "payable": false,
      "stateMutability": "nonpayable",
      "type": "constructor"
    },
    {
      "anonymous": false,
      "inputs": [
        {
          "indexed": true,
          "name": "previousOwner",
          "type": "address"
        },
        {
          "indexed": true,
          "name": "newOwner",
          "type": "address"
        }
      ],
      "name": "OwnershipTransferred",
      "type": "event"
    },
    {
      "constant": false,
      "inputs": [],
      "name": "getDataField",
      "outputs": [
        {
          "name": "field",
          "type": "string"
        }
      ],
      "payable": false,
      "stateMutability": "nonpayable",
      "type": "function"
    },
    {
      "constant": false,
      "inputs": [
        {
          "name": "_orgName",
          "type": "string"
        },
        {
          "name": "_contactPerson",
          "type": "string"
        },
        {
          "name": "_phone",
          "type": "string"
        },
        {
          "name": "_orgAddress",
          "type": "string"
        },
        {
          "name": "_email",
          "type": "string"
        },
        {
          "name": "_industryType",
          "type": "string"
        }
      ],
      "name": "setInfo",
      "outputs": [],
      "payable": false,
      "stateMutability": "nonpayable",
      "type": "function"
    },
    {
      "constant": false,
      "inputs": [],
      "name": "approve",
      "outputs": [],
      "payable": false,
      "stateMutability": "nonpayable",
      "type": "function"
    },
    {
      "constant": false,
      "inputs": [],
      "name": "isApprove",
      "outputs": [
        {
          "name": "isApproved",
          "type": "bool"
        }
      ],
      "payable": false,
      "stateMutability": "nonpayable",
      "type": "function"
    },
    {
      "constant": false,
      "inputs": [],
      "name": "getOrgName",
      "outputs": [
        {
          "name": "orgName",
          "type": "string"
        }
      ],
      "payable": false,
      "stateMutability": "nonpayable",
      "type": "function"
    },
    {
      "constant": false,
      "inputs": [],
      "name": "getorgContactPerson",
      "outputs": [
        {
          "name": "contactPerson",
          "type": "string"
        }
      ],
      "payable": false,
      "stateMutability": "nonpayable",
      "type": "function"
    },
    {
      "constant": false,
      "inputs": [],
      "name": "getPhone",
      "outputs": [
        {
          "name": "phone",
          "type": "string"
        }
      ],
      "payable": false,
      "stateMutability": "nonpayable",
      "type": "function"
    },
    {
      "constant": false,
      "inputs": [],
      "name": "getOrgAddress",
      "outputs": [
        {
          "name": "orgAddress",
          "type": "string"
        }
      ],
      "payable": false,
      "stateMutability": "nonpayable",
      "type": "function"
    },
    {
      "constant": false,
      "inputs": [],
      "name": "getEmail",
      "outputs": [
        {
          "name": "email",
          "type": "string"
        }
      ],
      "payable": false,
      "stateMutability": "nonpayable",
      "type": "function"
    },
    {
      "constant": false,
      "inputs": [],
      "name": "getIndustryType",
      "outputs": [
        {
          "name": "industryType",
          "type": "string"
        }
      ],
      "payable": false,
      "stateMutability": "nonpayable",
      "type": "function"
    }
  ],
  "bytecode": "0x60806040523480156200001157600080fd5b5060405162001c7338038062001c7383398101806040526101208110156200003857600080fd5b810190808051906020019092919080516401000000008111156200005b57600080fd5b828101905060208101848111156200007257600080fd5b81518560018202830111640100000000821117156200009057600080fd5b50509291906020018051640100000000811115620000ad57600080fd5b82810190506020810184811115620000c457600080fd5b8151856001820283011164010000000082111715620000e257600080fd5b50509291906020018051640100000000811115620000ff57600080fd5b828101905060208101848111156200011657600080fd5b81518560018202830111640100000000821117156200013457600080fd5b505092919060200180516401000000008111156200015157600080fd5b828101905060208101848111156200016857600080fd5b81518560018202830111640100000000821117156200018657600080fd5b50509291906020018051640100000000811115620001a357600080fd5b82810190506020810184811115620001ba57600080fd5b8151856001820283011164010000000082111715620001d857600080fd5b50509291906020018051640100000000811115620001f557600080fd5b828101905060208101848111156200020c57600080fd5b81518560018202830111640100000000821117156200022a57600080fd5b505092919060200180516401000000008111156200024757600080fd5b828101905060208101848111156200025e57600080fd5b81518560018202830111640100000000821117156200027c57600080fd5b505092919060200180516401000000008111156200029957600080fd5b82810190506020810184811115620002b057600080fd5b8151856001820283011164010000000082111715620002ce57600080fd5b5050929190505050336000806101000a81548173ffffffffffffffffffffffffffffffffffffffff021916908373ffffffffffffffffffffffffffffffffffffffff16021790555033600160006101000a81548173ffffffffffffffffffffffffffffffffffffffff021916908373ffffffffffffffffffffffffffffffffffffffff1602179055506000809054906101000a900473ffffffffffffffffffffffffffffffffffffffff1673ffffffffffffffffffffffffffffffffffffffff16600073ffffffffffffffffffffffffffffffffffffffff167f8be0079c531659141344cd1fd0a4f28419497f9722a3daafe3b4186f6b6457e060405160405180910390a3610140604051908101604052808981526020018881526020018781526020018681526020018581526020018481526020018381526020016000151581526020018281526020016020604051908101604052806000815250815250600260008201518160000190805190602001906200044d92919062000728565b5060208201518160010190805190602001906200046c92919062000728565b5060408201518160020190805190602001906200048b92919062000728565b506060820151816003019080519060200190620004aa92919062000728565b506080820151816004019080519060200190620004c992919062000728565b5060a0820151816005019080519060200190620004e892919062000728565b5060c08201518160060190805190602001906200050792919062000728565b5060e08201518160070160006101000a81548160ff0219169083151502179055506101008201518160080190805190602001906200054792919062000728565b506101208201518160090190805190602001906200056792919062000728565b50905050620005858962000594640100000000026401000000009004565b505050505050505050620007d7565b620005ad620005d6640100000000026401000000009004565b1515620005b957600080fd5b620005d3816200062d640100000000026401000000009004565b50565b60008060009054906101000a900473ffffffffffffffffffffffffffffffffffffffff1673ffffffffffffffffffffffffffffffffffffffff163373ffffffffffffffffffffffffffffffffffffffff1614905090565b600073ffffffffffffffffffffffffffffffffffffffff168173ffffffffffffffffffffffffffffffffffffffff16141515156200066a57600080fd5b8073ffffffffffffffffffffffffffffffffffffffff166000809054906101000a900473ffffffffffffffffffffffffffffffffffffffff1673ffffffffffffffffffffffffffffffffffffffff167f8be0079c531659141344cd1fd0a4f28419497f9722a3daafe3b4186f6b6457e060405160405180910390a3806000806101000a81548173ffffffffffffffffffffffffffffffffffffffff021916908373ffffffffffffffffffffffffffffffffffffffff16021790555050565b828054600181600116156101000203166002900490600052602060002090601f016020900481019282601f106200076b57805160ff19168380011785556200079c565b828001600101855582156200079c579182015b828111156200079b5782518255916020019190600101906200077e565b5b509050620007ab9190620007af565b5090565b620007d491905b80821115620007d0576000816000905550600101620007b6565b5090565b90565b61148c80620007e76000396000f3fe6080604052600436106100f1576000357c0100000000000000000000000000000000000000000000000000000000900463ffffffff16806310658dae146100f657806312424e3f146104b15780632726aa0f146104c85780635a470b6914610558578063623b7565146105e8578063715018a6146106785780637e79e8ba1461068f5780638863bab01461071f5780638da5cb5b146107af5780638f32d59b1461080657806396d5d35d14610835578063a2288c2414610864578063a46c98f4146108f4578063b2bdfa7b14610984578063c56a3e88146109db578063f0329f6b14610a0a578063f2fde38b14610a61575b600080fd5b34801561010257600080fd5b506104af600480360360c081101561011957600080fd5b810190808035906020019064010000000081111561013657600080fd5b82018360208201111561014857600080fd5b8035906020019184600183028401116401000000008311171561016a57600080fd5b91908080601f016020809104026020016040519081016040528093929190818152602001838380828437600081840152601f19601f820116905080830192505050505050509192919290803590602001906401000000008111156101cd57600080fd5b8201836020820111156101df57600080fd5b8035906020019184600183028401116401000000008311171561020157600080fd5b91908080601f016020809104026020016040519081016040528093929190818152602001838380828437600081840152601f19601f8201169050808301925050505050505091929192908035906020019064010000000081111561026457600080fd5b82018360208201111561027657600080fd5b8035906020019184600183028401116401000000008311171561029857600080fd5b91908080601f016020809104026020016040519081016040528093929190818152602001838380828437600081840152601f19601f820116905080830192505050505050509192919290803590602001906401000000008111156102fb57600080fd5b82018360208201111561030d57600080fd5b8035906020019184600183028401116401000000008311171561032f57600080fd5b91908080601f016020809104026020016040519081016040528093929190818152602001838380828437600081840152601f19601f8201169050808301925050505050505091929192908035906020019064010000000081111561039257600080fd5b8201836020820111156103a457600080fd5b803590602001918460018302840111640100000000831117156103c657600080fd5b91908080601f016020809104026020016040519081016040528093929190818152602001838380828437600081840152601f19601f8201169050808301925050505050505091929192908035906020019064010000000081111561042957600080fd5b82018360208201111561043b57600080fd5b8035906020019184600183028401116401000000008311171561045d57600080fd5b91908080601f016020809104026020016040519081016040528093929190818152602001838380828437600081840152601f19601f820116905080830192505050505050509192919290505050610ab2565b005b3480156104bd57600080fd5b506104c6610b68565b005b3480156104d457600080fd5b506104dd610b9b565b6040518080602001828103825283818151815260200191508051906020019080838360005b8381101561051d578082015181840152602081019050610502565b50505050905090810190601f16801561054a5780820380516001836020036101000a031916815260200191505b509250505060405180910390f35b34801561056457600080fd5b5061056d610bbd565b6040518080602001828103825283818151815260200191508051906020019080838360005b838110156105ad578082015181840152602081019050610592565b50505050905090810190601f1680156105da5780820380516001836020036101000a031916815260200191505b509250505060405180910390f35b3480156105f457600080fd5b506105fd610c62565b6040518080602001828103825283818151815260200191508051906020019080838360005b8381101561063d578082015181840152602081019050610622565b50505050905090810190601f16801561066a5780820380516001836020036101000a031916815260200191505b509250505060405180910390f35b34801561068457600080fd5b5061068d610d07565b005b34801561069b57600080fd5b506106a4610dd9565b6040518080602001828103825283818151815260200191508051906020019080838360005b838110156106e45780820151818401526020810190506106c9565b50505050905090810190601f1680156107115780820380516001836020036101000a031916815260200191505b509250505060405180910390f35b34801561072b57600080fd5b50610734610e7e565b6040518080602001828103825283818151815260200191508051906020019080838360005b83811015610774578082015181840152602081019050610759565b50505050905090810190601f1680156107a15780820380516001836020036101000a031916815260200191505b509250505060405180910390f35b3480156107bb57600080fd5b506107c4610f23565b604051808273ffffffffffffffffffffffffffffffffffffffff1673ffffffffffffffffffffffffffffffffffffffff16815260200191505060405180910390f35b34801561081257600080fd5b5061081b610f4c565b604051808215151515815260200191505060405180910390f35b34801561084157600080fd5b5061084a610fa3565b604051808215151515815260200191505060405180910390f35b34801561087057600080fd5b50610879610fd0565b6040518080602001828103825283818151815260200191508051906020019080838360005b838110156108b957808201518184015260208101905061089e565b50505050905090810190601f1680156108e65780820380516001836020036101000a031916815260200191505b509250505060405180910390f35b34801561090057600080fd5b50610909611075565b6040518080602001828103825283818151815260200191508051906020019080838360005b8381101561094957808201518184015260208101905061092e565b50505050905090810190601f1680156109765780820380516001836020036101000a031916815260200191505b509250505060405180910390f35b34801561099057600080fd5b50610999611119565b604051808273ffffffffffffffffffffffffffffffffffffffff1673ffffffffffffffffffffffffffffffffffffffff16815260200191505060405180910390f35b3480156109e757600080fd5b506109f061113e565b604051808215151515815260200191505060405180910390f35b348015610a1657600080fd5b50610a1f611196565b604051808273ffffffffffffffffffffffffffffffffffffffff1673ffffffffffffffffffffffffffffffffffffffff16815260200191505060405180910390f35b348015610a6d57600080fd5b50610ab060048036036020811015610a8457600080fd5b81019080803573ffffffffffffffffffffffffffffffffffffffff1690602001909291905050506111bc565b005b610aba61113e565b1515610ac557600080fd5b85600280019080519060200190610add9291906112d5565b508460026003019080519060200190610af79291906112d5565b508360026004019080519060200190610b119291906112d5565b508260026005019080519060200190610b2b9291906112d5565b508160026006019080519060200190610b459291906112d5565b508060026008019080519060200190610b5f9291906112d5565b50505050505050565b610b7061113e565b1515610b7b57600080fd5b6001600260070160006101000a81548160ff021916908315150217905550565b60606101206040519081016040528060e6815260200161137b60e69139905090565b606060026003018054600181600116156101000203166002900480601f016020809104026020016040519081016040528092919081815260200182805460018160011615610100020316600290048015610c585780601f10610c2d57610100808354040283529160200191610c58565b820191906000526020600020905b815481529060010190602001808311610c3b57829003601f168201915b5050505050905090565b606060026005018054600181600116156101000203166002900480601f016020809104026020016040519081016040528092919081815260200182805460018160011615610100020316600290048015610cfd5780601f10610cd257610100808354040283529160200191610cfd565b820191906000526020600020905b815481529060010190602001808311610ce057829003601f168201915b5050505050905090565b610d0f610f4c565b1515610d1a57600080fd5b600073ffffffffffffffffffffffffffffffffffffffff166000809054906101000a900473ffffffffffffffffffffffffffffffffffffffff1673ffffffffffffffffffffffffffffffffffffffff167f8be0079c531659141344cd1fd0a4f28419497f9722a3daafe3b4186f6b6457e060405160405180910390a360008060006101000a81548173ffffffffffffffffffffffffffffffffffffffff021916908373ffffffffffffffffffffffffffffffffffffffff160217905550565b606060026006018054600181600116156101000203166002900480601f016020809104026020016040519081016040528092919081815260200182805460018160011615610100020316600290048015610e745780601f10610e4957610100808354040283529160200191610e74565b820191906000526020600020905b815481529060010190602001808311610e5757829003601f168201915b5050505050905090565b606060026004018054600181600116156101000203166002900480601f016020809104026020016040519081016040528092919081815260200182805460018160011615610100020316600290048015610f195780601f10610eee57610100808354040283529160200191610f19565b820191906000526020600020905b815481529060010190602001808311610efc57829003601f168201915b5050505050905090565b60008060009054906101000a900473ffffffffffffffffffffffffffffffffffffffff16905090565b60008060009054906101000a900473ffffffffffffffffffffffffffffffffffffffff1673ffffffffffffffffffffffffffffffffffffffff163373ffffffffffffffffffffffffffffffffffffffff1614905090565b6000610fad61113e565b1515610fb857600080fd5b600260070160009054906101000a900460ff16905090565b606060026008018054600181600116156101000203166002900480601f01602080910402602001604051908101604052809291908181526020018280546001816001161561010002031660029004801561106b5780601f106110405761010080835404028352916020019161106b565b820191906000526020600020905b81548152906001019060200180831161104e57829003601f168201915b5050505050905090565b6060600280018054600181600116156101000203166002900480601f01602080910402602001604051908101604052809291908181526020018280546001816001161561010002031660029004801561110f5780601f106110e45761010080835404028352916020019161110f565b820191906000526020600020905b8154815290600101906020018083116110f257829003601f168201915b5050505050905090565b6000809054906101000a900473ffffffffffffffffffffffffffffffffffffffff1681565b6000600160009054906101000a900473ffffffffffffffffffffffffffffffffffffffff1673ffffffffffffffffffffffffffffffffffffffff163373ffffffffffffffffffffffffffffffffffffffff1614905090565b600160009054906101000a900473ffffffffffffffffffffffffffffffffffffffff1681565b6111c4610f4c565b15156111cf57600080fd5b6111d8816111db565b50565b600073ffffffffffffffffffffffffffffffffffffffff168173ffffffffffffffffffffffffffffffffffffffff161415151561121757600080fd5b8073ffffffffffffffffffffffffffffffffffffffff166000809054906101000a900473ffffffffffffffffffffffffffffffffffffffff1673ffffffffffffffffffffffffffffffffffffffff167f8be0079c531659141344cd1fd0a4f28419497f9722a3daafe3b4186f6b6457e060405160405180910390a3806000806101000a81548173ffffffffffffffffffffffffffffffffffffffff021916908373ffffffffffffffffffffffffffffffffffffffff16021790555050565b828054600181600116156101000203166002900490600052602060002090601f016020900481019282601f1061131657805160ff1916838001178555611344565b82800160010185558215611344579182015b82811115611343578251825591602001919060010190611328565b5b5090506113519190611355565b5090565b61137791905b8082111561137357600081600090555060010161135b565b5090565b9056fe757365726e616d652c70617373776f72642c66697273742c6c6173742c6865616473686f742c62696f6d65747269632c647269766572436172642c6865616c7468436172642c636974697a656e73686970436172642c446f422c686f6d65416464726573732c656d61696c2c6472697665722c70617373706f72744e756d6265722c636974697a656e736869702c70686f6e652c53494e2c6865616c74682c6865616473686f742c62696f6d6574657269632c647269766572436172642c6865616c7468436172642c636974697a656e73686970436172642c70617373706f7274496d616765a165627a7a72305820ffc7414f52d1869fff12829c8a95d7350491d749ea9b51194ccac988fb5c12c30029",
  "source": "pragma solidity ^0.5.0;\r\nimport './Zeppelin/ownership/Ownable.sol';\r\ncontract Organization is Ownable{\r\n    \r\n    // only UserManager has privilege to set value of Info \r\n    struct Info{\r\n        string username;\r\n        string password; // hash of password\r\n        string orgName;\r\n        string contactPerson;\r\n        string phone;\r\n        string orgAddress;\r\n        string email;\r\n        bool isApprove;\r\n        string industryType;\r\n        // IPFS icon\r\n        string icon;\r\n    }\r\n    Info private orgInfo;\r\n    // Call by Web3 deploy\r\n    constructor (address _orgAccount,string memory _username, string memory _password,\r\n    string memory _orgName, string memory _contactPerson, string memory _phone,\r\n     string memory _orgAddress, string memory _email, string memory _industryType) public{\r\n        orgInfo = Info(_username, _password, _orgName, _contactPerson, _phone, _orgAddress,\r\n         _email, false, _industryType, \"\");\r\n        // set owner of contract to current organization\r\n        transferOwnership(_orgAccount);\r\n    }\r\n    function getDataField() public returns(string memory field){\r\n        return \"username,password,first,last,headshot,biometric,driverCard,healthCard,citizenshipCard,DoB,homeAddress,email,driver,passportNumber,citizenship,phone,SIN,health,headshot,biometeric,driverCard,healthCard,citizenshipCard,passportImage\";\r\n    }\r\n    // only User account can call this method\r\n    function setInfo(string memory _orgName, string memory _contactPerson, string memory _phone,\r\n     string memory _orgAddress, string memory _email, string memory _industryType) public onlyManager \r\n    {\r\n        orgInfo.orgName = _orgName;\r\n        orgInfo.contactPerson = _contactPerson;\r\n        orgInfo.phone = _phone;\r\n        orgInfo.orgAddress = _orgAddress;\r\n        orgInfo.email = _email;\r\n        orgInfo.industryType = _industryType;\r\n    }\r\n    function approve() public onlyManager{\r\n        orgInfo.isApprove = true;\r\n    }\r\n    function isApprove() public onlyManager returns (bool isApproved){\r\n        return orgInfo.isApprove;\r\n    }\r\n    function getOrgName()public returns (string memory orgName){\r\n        return orgInfo.orgName;\r\n    }\r\n    function getorgContactPerson()public returns (string memory contactPerson){\r\n        return orgInfo.contactPerson;\r\n    }\r\n    function getPhone()public returns (string memory phone){\r\n        return orgInfo.phone;\r\n    }\r\n    function getOrgAddress()public returns (string memory orgAddress){\r\n        return orgInfo.orgAddress;\r\n    }\r\n    function getEmail()public returns (string memory email){\r\n        return orgInfo.email;\r\n    }\r\n    function getIndustryType()public returns (string memory industryType){\r\n        return orgInfo.industryType;\r\n    }\r\n}\r\n\r\n",
  "sourcePath": "D:/BlockChain Proj/idworld-truffle/contracts/Organization.sol",
  "compiler": {
    "name": "solc",
    "version": "0.5.0+commit.1d4f565a.Emscripten.clang"
  },
  "schemaVersion": "3.0.0",
  "updatedAt": "2019-03-19T18:25:03.171Z",
  "devdoc": {
    "methods": {
      "isOwner()": {
        "return": "true if `msg.sender` is the owner of the contract.\r"
      },
      "owner()": {
        "return": "the address of the owner.\r"
      },
      "renounceOwnership()": {
        "details": "Allows the current owner to relinquish control of the contract.\r"
      },
      "transferOwnership(address)": {
        "details": "Allows the current owner to transfer control of the contract to a newOwner.\r",
        "params": {
          "newOwner": "The address to transfer ownership to.\r"
        }
      }
    }
  },
  "userdoc": {
    "methods": {
      "renounceOwnership()": {
        "notice": "Renouncing to ownership will leave the contract without an owner.\r It will not be possible to call the functions with the `onlyOwner`\r modifier anymore.\r"
      }
    }
  }
}