{
  "contractName": "OrgManager",
  "abi": [
    {
      "constant": true,
      "inputs": [
        {
          "name": "_username",
          "type": "string"
        }
      ],
      "name": "checkValidateOrgs",
      "outputs": [
        {
          "name": "result",
          "type": "address"
        }
      ],
      "payable": false,
      "stateMutability": "view",
      "type": "function",
      "signature": "0x7226e09e"
    },
    {
      "constant": false,
      "inputs": [
        {
          "name": "_orgAccount",
          "type": "address"
        },
        {
          "name": "_orgContract",
          "type": "address"
        },
        {
          "name": "_username",
          "type": "string"
        },
        {
          "name": "_password",
          "type": "string"
        }
      ],
      "name": "register",
      "outputs": [],
      "payable": false,
      "stateMutability": "nonpayable",
      "type": "function",
      "signature": "0x676bea67"
    },
    {
      "constant": true,
      "inputs": [
        {
          "name": "_username",
          "type": "string"
        },
        {
          "name": "_password",
          "type": "string"
        }
      ],
      "name": "login",
      "outputs": [
        {
          "name": "orgAccount",
          "type": "address"
        },
        {
          "name": "orgContract",
          "type": "address"
        }
      ],
      "payable": false,
      "stateMutability": "view",
      "type": "function",
      "signature": "0x58467dbc"
    }
  ],
  "bytecode": "0x608060405234801561001057600080fd5b50610bb0806100206000396000f3fe608060405260043610610057576000357c0100000000000000000000000000000000000000000000000000000000900463ffffffff16806358467dbc1461005c578063676bea671461022e5780637226e09e146103cd575b600080fd5b34801561006857600080fd5b506101b96004803603604081101561007f57600080fd5b810190808035906020019064010000000081111561009c57600080fd5b8201836020820111156100ae57600080fd5b803590602001918460018302840111640100000000831117156100d057600080fd5b91908080601f016020809104026020016040519081016040528093929190818152602001838380828437600081840152601f19601f8201169050808301925050505050505091929192908035906020019064010000000081111561013357600080fd5b82018360208201111561014557600080fd5b8035906020019184600183028401116401000000008311171561016757600080fd5b91908080601f016020809104026020016040519081016040528093929190818152602001838380828437600081840152601f19601f8201169050808301925050505050505091929192905050506104d5565b604051808373ffffffffffffffffffffffffffffffffffffffff1673ffffffffffffffffffffffffffffffffffffffff1681526020018273ffffffffffffffffffffffffffffffffffffffff1673ffffffffffffffffffffffffffffffffffffffff1681526020019250505060405180910390f35b34801561023a57600080fd5b506103cb6004803603608081101561025157600080fd5b81019080803573ffffffffffffffffffffffffffffffffffffffff169060200190929190803573ffffffffffffffffffffffffffffffffffffffff169060200190929190803590602001906401000000008111156102ae57600080fd5b8201836020820111156102c057600080fd5b803590602001918460018302840111640100000000831117156102e257600080fd5b91908080601f016020809104026020016040519081016040528093929190818152602001838380828437600081840152601f19601f8201169050808301925050505050505091929192908035906020019064010000000081111561034557600080fd5b82018360208201111561035757600080fd5b8035906020019184600183028401116401000000008311171561037957600080fd5b91908080601f016020809104026020016040519081016040528093929190818152602001838380828437600081840152601f19601f820116905080830192505050505050509192919290505050610775565b005b3480156103d957600080fd5b50610493600480360360208110156103f057600080fd5b810190808035906020019064010000000081111561040d57600080fd5b82018360208201111561041f57600080fd5b8035906020019184600183028401116401000000008311171561044157600080fd5b91908080601f016020809104026020016040519081016040528093929190818152602001838380828437600081840152601f19601f8201169050808301925050505050505091929192905050506108ee565b604051808273ffffffffffffffffffffffffffffffffffffffff1673ffffffffffffffffffffffffffffffffffffffff16815260200191505060405180910390f35b6000806000846040518082805190602001908083835b60208310151561051057805182526020820191506020810190506020830392506104eb565b6001836020036101000a038019825116818451168082178552505050505050905001915050908152602001604051809103902060020160405160200180828054600181600116156101000203166002900480156105a45780601f106105825761010080835404028352918201916105a4565b820191906000526020600020905b815481529060010190602001808311610590575b505091505060405160208183030381529060405280519060200120836040516020018082805190602001908083835b6020831015156105f857805182526020820191506020810190506020830392506105d3565b6001836020036101000a038019825116818451168082178552505050505050905001915050604051602081830303815290604052805190602001201415610760576000846040518082805190602001908083835b602083101515610671578051825260208201915060208101905060208303925061064c565b6001836020036101000a038019825116818451168082178552505050505050905001915050908152602001604051809103902060000160009054906101000a900473ffffffffffffffffffffffffffffffffffffffff166000856040518082805190602001908083835b60208310151561070057805182526020820191506020810190506020830392506106db565b6001836020036101000a038019825116818451168082178552505050505050905001915050908152602001604051809103902060010160009054906101000a900473ffffffffffffffffffffffffffffffffffffffff169150915061076e565b600080819150809050915091505b9250929050565b6060604051908101604052808573ffffffffffffffffffffffffffffffffffffffff1681526020018473ffffffffffffffffffffffffffffffffffffffff168152602001828152506000836040518082805190602001908083835b6020831015156107f557805182526020820191506020810190506020830392506107d0565b6001836020036101000a038019825116818451168082178552505050505050905001915050908152602001604051809103902060008201518160000160006101000a81548173ffffffffffffffffffffffffffffffffffffffff021916908373ffffffffffffffffffffffffffffffffffffffff16021790555060208201518160010160006101000a81548173ffffffffffffffffffffffffffffffffffffffff021916908373ffffffffffffffffffffffffffffffffffffffff16021790555060408201518160020190805190602001906108d2929190610adf565b5090505060016000815480929190600101919050555050505050565b60008073ffffffffffffffffffffffffffffffffffffffff166000836040518082805190602001908083835b60208310151561093f578051825260208201915060208101905060208303925061091a565b6001836020036101000a038019825116818451168082178552505050505050905001915050908152602001604051809103902060000160009054906101000a900473ffffffffffffffffffffffffffffffffffffffff1673ffffffffffffffffffffffffffffffffffffffff161415610a48576000826040518082805190602001908083835b6020831015156109ea57805182526020820191506020810190506020830392506109c5565b6001836020036101000a038019825116818451168082178552505050505050905001915050908152602001604051809103902060000160009054906101000a900473ffffffffffffffffffffffffffffffffffffffff169050610ada565b6000826040518082805190602001908083835b602083101515610a805780518252602082019150602081019050602083039250610a5b565b6001836020036101000a038019825116818451168082178552505050505050905001915050908152602001604051809103902060000160009054906101000a900473ffffffffffffffffffffffffffffffffffffffff1690505b919050565b828054600181600116156101000203166002900490600052602060002090601f016020900481019282601f10610b2057805160ff1916838001178555610b4e565b82800160010185558215610b4e579182015b82811115610b4d578251825591602001919060010190610b32565b5b509050610b5b9190610b5f565b5090565b610b8191905b80821115610b7d576000816000905550600101610b65565b5090565b9056fea165627a7a72305820e9d8885f681cc8f0cdb9b6632779e5b593ccae617f24559d1a1a9d3f860266950029",
  "source": "pragma solidity ^0.5.0;\r\n// TODO\r\n// only manager ethereum account have access of this contract\r\n\r\ncontract OrgManager{\r\n\tstruct Organization{\r\n\t\taddress account; // org account address\r\n\t\taddress contractOrg; // \"Org\" contract address\r\n\t\tstring password; // Org password hash value\r\n\t}\r\n    \r\n\tmapping (string => Organization) private orgToAccount; // a storage for user and their account, key=username\r\n\tuint private count; // number of register User\r\n\tfunction checkValidateOrgs(string memory _username) public view returns (address result){// see if input username already exist\r\n\t\tif(orgToAccount[_username].account == address(0)){\r\n\t\t\treturn orgToAccount[_username].account;\r\n\t\t}else\r\n\t\t\treturn orgToAccount[_username].account;\r\n\t}\r\n\tfunction register(address _orgAccount, address _orgContract,\r\n\tstring memory _username, string memory _password) public{\r\n\t    // Adding address and username to mapping, Count++\r\n\t\torgToAccount[_username] = Organization(_orgAccount, _orgContract, _password);\r\n\t\tcount++;\r\n\t}\r\n\tfunction login(string memory _username, string memory _password) public view \r\n\treturns (address orgAccount, address orgContract){\r\n\t\t// if username & password is correct, return user address\r\n\t\tif(keccak256(abi.encodePacked(_password)) == keccak256(abi.encodePacked(orgToAccount[_username].password)))\r\n\t    \treturn (orgToAccount[_username].account, orgToAccount[_username].contractOrg);\r\n\t\telse\r\n\t\t\treturn (address(0),address(0));\r\n\t}\r\n\t\r\n}",
  "sourcePath": "D:/BlockChain Proj/idworld-truffle/contracts/OrgManager.sol",
  "compiler": {
    "name": "solc",
    "version": "0.5.0+commit.1d4f565a.Emscripten.clang"
  },
  "schemaVersion": "3.0.0",
  "updatedAt": "2019-03-24T19:46:30.669Z",
  "devdoc": {
    "methods": {}
  },
  "userdoc": {
    "methods": {}
  }
}