{
  "contractName": "ThirdPartyList",
  "abi": [
    {
      "constant": false,
      "inputs": [
        {
          "name": "companyName",
          "type": "string"
        },
        {
          "name": "userAddress",
          "type": "address"
        },
        {
          "name": "securityLevel",
          "type": "string"
        },
        {
          "name": "token",
          "type": "string"
        }
      ],
      "name": "set",
      "outputs": [],
      "payable": false,
      "stateMutability": "nonpayable",
      "type": "function"
    },
    {
      "constant": false,
      "inputs": [
        {
          "name": "token",
          "type": "string"
        }
      ],
      "name": "get",
      "outputs": [
        {
          "name": "userAddress",
          "type": "address"
        },
        {
          "name": "securityLevel",
          "type": "string"
        }
      ],
      "payable": false,
      "stateMutability": "nonpayable",
      "type": "function"
    }
  ],
  "bytecode": "0x608060405234801561001057600080fd5b5061079c806100206000396000f3fe60806040526004361061004c576000357c0100000000000000000000000000000000000000000000000000000000900463ffffffff168063399a5dda14610051578063693ec85e14610267575b600080fd5b34801561005d57600080fd5b506102656004803603608081101561007457600080fd5b810190808035906020019064010000000081111561009157600080fd5b8201836020820111156100a357600080fd5b803590602001918460018302840111640100000000831117156100c557600080fd5b91908080601f016020809104026020016040519081016040528093929190818152602001838380828437600081840152601f19601f820116905080830192505050505050509192919290803573ffffffffffffffffffffffffffffffffffffffff1690602001909291908035906020019064010000000081111561014857600080fd5b82018360208201111561015a57600080fd5b8035906020019184600183028401116401000000008311171561017c57600080fd5b91908080601f016020809104026020016040519081016040528093929190818152602001838380828437600081840152601f19601f820116905080830192505050505050509192919290803590602001906401000000008111156101df57600080fd5b8201836020820111156101f157600080fd5b8035906020019184600183028401116401000000008311171561021357600080fd5b91908080601f016020809104026020016040519081016040528093929190818152602001838380828437600081840152601f19601f8201169050808301925050505050505091929192905050506103db565b005b34801561027357600080fd5b5061032d6004803603602081101561028a57600080fd5b81019080803590602001906401000000008111156102a757600080fd5b8201836020820111156102b957600080fd5b803590602001918460018302840111640100000000831117156102db57600080fd5b91908080601f016020809104026020016040519081016040528093929190818152602001838380828437600081840152601f19601f820116905080830192505050505050509192919290505050610525565b604051808373ffffffffffffffffffffffffffffffffffffffff1673ffffffffffffffffffffffffffffffffffffffff16815260200180602001828103825283818151815260200191508051906020019080838360005b8381101561039f578082015181840152602081019050610384565b50505050905090810190601f1680156103cc5780820380516001836020036101000a031916815260200191505b50935050505060405180910390f35b6080604051908101604052808581526020018473ffffffffffffffffffffffffffffffffffffffff168152602001838152602001828152506000826040518082805190602001908083835b60208310151561044b5780518252602082019150602081019050602083039250610426565b6001836020036101000a0380198251168184511680821785525050505050509050019150509081526020016040518091039020600082015181600001908051906020019061049a9291906106cb565b5060208201518160010160006101000a81548173ffffffffffffffffffffffffffffffffffffffff021916908373ffffffffffffffffffffffffffffffffffffffff16021790555060408201518160020190805190602001906104fe9291906106cb565b50606082015181600301908051906020019061051b9291906106cb565b5090505050505050565b600060606000836040518082805190602001908083835b602083101515610561578051825260208201915060208101905060208303925061053c565b6001836020036101000a038019825116818451168082178552505050505050905001915050908152602001604051809103902060010160009054906101000a900473ffffffffffffffffffffffffffffffffffffffff166000846040518082805190602001908083835b6020831015156105f057805182526020820191506020810190506020830392506105cb565b6001836020036101000a0380198251168184511680821785525050505050509050019150509081526020016040518091039020600201808054600181600116156101000203166002900480601f0160208091040260200160405190810160405280929190818152602001828054600181600116156101000203166002900480156106bb5780601f10610690576101008083540402835291602001916106bb565b820191906000526020600020905b81548152906001019060200180831161069e57829003601f168201915b5050505050905091509150915091565b828054600181600116156101000203166002900490600052602060002090601f016020900481019282601f1061070c57805160ff191683800117855561073a565b8280016001018555821561073a579182015b8281111561073957825182559160200191906001019061071e565b5b509050610747919061074b565b5090565b61076d91905b80821115610769576000816000905550600101610751565b5090565b9056fea165627a7a723058206a672e72263b9d1b9cdea8178b4b4f93342e4b3cfa0ef2737700dd4e7d1ae5ce0029",
  "source": "pragma solidity ^0.5.0;\r\n// TODO\r\n// only manager ethereum account have access of this contract\r\n\r\ncontract ThirdPartyList{\r\n    struct ThirdParty{\r\n        string companyName;\r\n        address userAddress;\r\n        string securityLevel; // 0~3\r\n        string token; //jwt token\r\n    }\r\n    mapping (string => ThirdParty) private tokenToThirdparty; // key:token \r\n    function set(string memory companyName, address userAddress, \r\n    string memory securityLevel, string memory token) public {\r\n        tokenToThirdparty[token] = ThirdParty(companyName,userAddress,securityLevel,token);\r\n    }\r\n    function get(string memory token) public returns(address userAddress, string memory securityLevel){\r\n        return (tokenToThirdparty[token].userAddress, tokenToThirdparty[token].securityLevel);\r\n    }\r\n}",
  "sourcePath": "D:/BlockChain Proj/idworld-truffle/contracts/ThirdPartyList.sol",
  "compiler": {
    "name": "solc",
    "version": "0.5.0+commit.1d4f565a.Emscripten.clang"
  },
  "schemaVersion": "3.0.0",
  "updatedAt": "2019-03-11T22:42:35.068Z",
  "devdoc": {
    "methods": {}
  },
  "userdoc": {
    "methods": {}
  }
}