{
  "contractName": "UsersManager",
  "abi": [
    {
      "constant": false,
      "inputs": [],
      "name": "renounceOwnership",
      "outputs": [],
      "payable": false,
      "stateMutability": "nonpayable",
      "type": "function"
    },
    {
      "constant": true,
      "inputs": [],
      "name": "owner",
      "outputs": [
        {
          "name": "",
          "type": "address"
        }
      ],
      "payable": false,
      "stateMutability": "view",
      "type": "function"
    },
    {
      "constant": true,
      "inputs": [],
      "name": "isOwner",
      "outputs": [
        {
          "name": "",
          "type": "bool"
        }
      ],
      "payable": false,
      "stateMutability": "view",
      "type": "function"
    },
    {
      "constant": true,
      "inputs": [],
      "name": "_owner",
      "outputs": [
        {
          "name": "",
          "type": "address"
        }
      ],
      "payable": false,
      "stateMutability": "view",
      "type": "function"
    },
    {
      "constant": true,
      "inputs": [],
      "name": "isManager",
      "outputs": [
        {
          "name": "",
          "type": "bool"
        }
      ],
      "payable": false,
      "stateMutability": "view",
      "type": "function"
    },
    {
      "constant": true,
      "inputs": [],
      "name": "_manager",
      "outputs": [
        {
          "name": "",
          "type": "address"
        }
      ],
      "payable": false,
      "stateMutability": "view",
      "type": "function"
    },
    {
      "constant": false,
      "inputs": [
        {
          "name": "newOwner",
          "type": "address"
        }
      ],
      "name": "transferOwnership",
      "outputs": [],
      "payable": false,
      "stateMutability": "nonpayable",
      "type": "function"
    },
    {
      "anonymous": false,
      "inputs": [
        {
          "indexed": false,
          "name": "userAccount",
          "type": "address"
        },
        {
          "indexed": false,
          "name": "contractAccount",
          "type": "address"
        },
        {
          "indexed": false,
          "name": "username",
          "type": "string"
        }
      ],
      "name": "NewUser",
      "type": "event"
    },
    {
      "anonymous": false,
      "inputs": [
        {
          "indexed": true,
          "name": "previousOwner",
          "type": "address"
        },
        {
          "indexed": true,
          "name": "newOwner",
          "type": "address"
        }
      ],
      "name": "OwnershipTransferred",
      "type": "event"
    },
    {
      "constant": false,
      "inputs": [
        {
          "name": "_SIN",
          "type": "string"
        },
        {
          "name": "_credit",
          "type": "bool"
        }
      ],
      "name": "updateCredit",
      "outputs": [],
      "payable": false,
      "stateMutability": "nonpayable",
      "type": "function"
    },
    {
      "constant": true,
      "inputs": [
        {
          "name": "_SIN",
          "type": "string"
        }
      ],
      "name": "getCredit",
      "outputs": [
        {
          "name": "credit",
          "type": "bool"
        }
      ],
      "payable": false,
      "stateMutability": "view",
      "type": "function"
    },
    {
      "constant": false,
      "inputs": [
        {
          "name": "_SIN",
          "type": "string"
        },
        {
          "name": "_user",
          "type": "address"
        }
      ],
      "name": "createSIN",
      "outputs": [],
      "payable": false,
      "stateMutability": "nonpayable",
      "type": "function"
    },
    {
      "constant": true,
      "inputs": [
        {
          "name": "_SIN",
          "type": "string"
        }
      ],
      "name": "getUserBySIN",
      "outputs": [
        {
          "name": "userContract",
          "type": "address"
        }
      ],
      "payable": false,
      "stateMutability": "view",
      "type": "function"
    },
    {
      "constant": false,
      "inputs": [
        {
          "name": "_prevSIN",
          "type": "string"
        },
        {
          "name": "_newSIN",
          "type": "string"
        }
      ],
      "name": "changeSIN",
      "outputs": [],
      "payable": false,
      "stateMutability": "nonpayable",
      "type": "function"
    },
    {
      "constant": true,
      "inputs": [
        {
          "name": "_username",
          "type": "string"
        }
      ],
      "name": "checkValidateUsers",
      "outputs": [
        {
          "name": "result",
          "type": "address"
        }
      ],
      "payable": false,
      "stateMutability": "view",
      "type": "function"
    },
    {
      "constant": false,
      "inputs": [
        {
          "name": "_userAccount",
          "type": "address"
        },
        {
          "name": "_userContract",
          "type": "address"
        },
        {
          "name": "_username",
          "type": "string"
        },
        {
          "name": "_password",
          "type": "string"
        }
      ],
      "name": "register",
      "outputs": [],
      "payable": false,
      "stateMutability": "nonpayable",
      "type": "function"
    },
    {
      "constant": true,
      "inputs": [
        {
          "name": "_username",
          "type": "string"
        },
        {
          "name": "_password",
          "type": "string"
        }
      ],
      "name": "login",
      "outputs": [
        {
          "name": "userAccount",
          "type": "address"
        },
        {
          "name": "userContract",
          "type": "address"
        }
      ],
      "payable": false,
      "stateMutability": "view",
      "type": "function"
    }
  ],
  "bytecode": "0x6080604052336000806101000a81548173ffffffffffffffffffffffffffffffffffffffff021916908373ffffffffffffffffffffffffffffffffffffffff16021790555033600160006101000a81548173ffffffffffffffffffffffffffffffffffffffff021916908373ffffffffffffffffffffffffffffffffffffffff1602179055506000809054906101000a900473ffffffffffffffffffffffffffffffffffffffff1673ffffffffffffffffffffffffffffffffffffffff16600073ffffffffffffffffffffffffffffffffffffffff167f8be0079c531659141344cd1fd0a4f28419497f9722a3daafe3b4186f6b6457e060405160405180910390a3611afd806101106000396000f3fe6080604052600436106100db576000357c0100000000000000000000000000000000000000000000000000000000900463ffffffff168063265e9f1d146100e0578063306ef5501461023f57806350fd44ac1461034757806358467dbc1461042f578063676bea6714610601578063715018a6146107a05780638da5cb5b146107b75780638f32d59b1461080e578063b2bdfa7b1461083d578063c1f0dba714610894578063c56a3e881461099c578063c81c8d87146109cb578063f0329f6b14610a9f578063f2fde38b14610af6578063f7522cba14610b47575b600080fd5b3480156100ec57600080fd5b5061023d6004803603604081101561010357600080fd5b810190808035906020019064010000000081111561012057600080fd5b82018360208201111561013257600080fd5b8035906020019184600183028401116401000000008311171561015457600080fd5b91908080601f016020809104026020016040519081016040528093929190818152602001838380828437600081840152601f19601f820116905080830192505050505050509192919290803590602001906401000000008111156101b757600080fd5b8201836020820111156101c957600080fd5b803590602001918460018302840111640100000000831117156101eb57600080fd5b91908080601f016020809104026020016040519081016040528093929190818152602001838380828437600081840152601f19601f820116905080830192505050505050509192919290505050610c27565b005b34801561024b57600080fd5b506103056004803603602081101561026257600080fd5b810190808035906020019064010000000081111561027f57600080fd5b82018360208201111561029157600080fd5b803590602001918460018302840111640100000000831117156102b357600080fd5b91908080601f016020809104026020016040519081016040528093929190818152602001838380828437600081840152601f19601f820116905080830192505050505050509192919290505050610e5b565b604051808273ffffffffffffffffffffffffffffffffffffffff1673ffffffffffffffffffffffffffffffffffffffff16815260200191505060405180910390f35b34801561035357600080fd5b5061042d6004803603604081101561036a57600080fd5b810190808035906020019064010000000081111561038757600080fd5b82018360208201111561039957600080fd5b803590602001918460018302840111640100000000831117156103bb57600080fd5b91908080601f016020809104026020016040519081016040528093929190818152602001838380828437600081840152601f19601f820116905080830192505050505050509192919290803573ffffffffffffffffffffffffffffffffffffffff16906020019092919050505061104c565b005b34801561043b57600080fd5b5061058c6004803603604081101561045257600080fd5b810190808035906020019064010000000081111561046f57600080fd5b82018360208201111561048157600080fd5b803590602001918460018302840111640100000000831117156104a357600080fd5b91908080601f016020809104026020016040519081016040528093929190818152602001838380828437600081840152601f19601f8201169050808301925050505050505091929192908035906020019064010000000081111561050657600080fd5b82018360208201111561051857600080fd5b8035906020019184600183028401116401000000008311171561053a57600080fd5b91908080601f016020809104026020016040519081016040528093929190818152602001838380828437600081840152601f19601f82011690508083019250505050505050919291929050505061110d565b604051808373ffffffffffffffffffffffffffffffffffffffff1673ffffffffffffffffffffffffffffffffffffffff1681526020018273ffffffffffffffffffffffffffffffffffffffff1673ffffffffffffffffffffffffffffffffffffffff1681526020019250505060405180910390f35b34801561060d57600080fd5b5061079e6004803603608081101561062457600080fd5b81019080803573ffffffffffffffffffffffffffffffffffffffff169060200190929190803573ffffffffffffffffffffffffffffffffffffffff1690602001909291908035906020019064010000000081111561068157600080fd5b82018360208201111561069357600080fd5b803590602001918460018302840111640100000000831117156106b557600080fd5b91908080601f016020809104026020016040519081016040528093929190818152602001838380828437600081840152601f19601f8201169050808301925050505050505091929192908035906020019064010000000081111561071857600080fd5b82018360208201111561072a57600080fd5b8035906020019184600183028401116401000000008311171561074c57600080fd5b91908080601f016020809104026020016040519081016040528093929190818152602001838380828437600081840152601f19601f820116905080830192505050505050509192919290505050611335565b005b3480156107ac57600080fd5b506107b5611612565b005b3480156107c357600080fd5b506107cc6116e4565b604051808273ffffffffffffffffffffffffffffffffffffffff1673ffffffffffffffffffffffffffffffffffffffff16815260200191505060405180910390f35b34801561081a57600080fd5b5061082361170d565b604051808215151515815260200191505060405180910390f35b34801561084957600080fd5b50610852611764565b604051808273ffffffffffffffffffffffffffffffffffffffff1673ffffffffffffffffffffffffffffffffffffffff16815260200191505060405180910390f35b3480156108a057600080fd5b5061095a600480360360208110156108b757600080fd5b81019080803590602001906401000000008111156108d457600080fd5b8201836020820111156108e657600080fd5b8035906020019184600183028401116401000000008311171561090857600080fd5b91908080601f016020809104026020016040519081016040528093929190818152602001838380828437600081840152601f19601f820116905080830192505050505050509192919290505050611789565b604051808273ffffffffffffffffffffffffffffffffffffffff1673ffffffffffffffffffffffffffffffffffffffff16815260200191505060405180910390f35b3480156109a857600080fd5b506109b161181e565b604051808215151515815260200191505060405180910390f35b3480156109d757600080fd5b50610a9d600480360360408110156109ee57600080fd5b8101908080359060200190640100000000811115610a0b57600080fd5b820183602082011115610a1d57600080fd5b80359060200191846001830284011164010000000083111715610a3f57600080fd5b91908080601f016020809104026020016040519081016040528093929190818152602001838380828437600081840152601f19601f820116905080830192505050505050509192919290803515159060200190929190505050611876565b005b348015610aab57600080fd5b50610ab4611910565b604051808273ffffffffffffffffffffffffffffffffffffffff1673ffffffffffffffffffffffffffffffffffffffff16815260200191505060405180910390f35b348015610b0257600080fd5b50610b4560048036036020811015610b1957600080fd5b81019080803573ffffffffffffffffffffffffffffffffffffffff169060200190929190505050611936565b005b348015610b5357600080fd5b50610c0d60048036036020811015610b6a57600080fd5b8101908080359060200190640100000000811115610b8757600080fd5b820183602082011115610b9957600080fd5b80359060200191846001830284011164010000000083111715610bbb57600080fd5b91908080601f016020809104026020016040519081016040528093929190818152602001838380828437600081840152601f19601f820116905080830192505050505050509192919290505050611955565b604051808215151515815260200191505060405180910390f35b6003826040518082805190602001908083835b602083101515610c5f5780518252602082019150602081019050602083039250610c3a565b6001836020036101000a038019825116818451168082178552505050505050905001915050908152602001604051809103902060009054906101000a900473ffffffffffffffffffffffffffffffffffffffff166003826040518082805190602001908083835b602083101515610ceb5780518252602082019150602081019050602083039250610cc6565b6001836020036101000a038019825116818451168082178552505050505050905001915050908152602001604051809103902060006101000a81548173ffffffffffffffffffffffffffffffffffffffff021916908373ffffffffffffffffffffffffffffffffffffffff1602179055506004826040518082805190602001908083835b602083101515610d945780518252602082019150602081019050602083039250610d6f565b6001836020036101000a038019825116818451168082178552505050505050905001915050908152602001604051809103902060009054906101000a900460ff166004826040518082805190602001908083835b602083101515610e0d5780518252602082019150602081019050602083039250610de8565b6001836020036101000a038019825116818451168082178552505050505050905001915050908152602001604051809103902060006101000a81548160ff0219169083151502179055505050565b60008073ffffffffffffffffffffffffffffffffffffffff166002836040518082805190602001908083835b602083101515610eac5780518252602082019150602081019050602083039250610e87565b6001836020036101000a038019825116818451168082178552505050505050905001915050908152602001604051809103902060000160009054906101000a900473ffffffffffffffffffffffffffffffffffffffff1673ffffffffffffffffffffffffffffffffffffffff161415610fb5576002826040518082805190602001908083835b602083101515610f575780518252602082019150602081019050602083039250610f32565b6001836020036101000a038019825116818451168082178552505050505050905001915050908152602001604051809103902060000160009054906101000a900473ffffffffffffffffffffffffffffffffffffffff169050611047565b6002826040518082805190602001908083835b602083101515610fed5780518252602082019150602081019050602083039250610fc8565b6001836020036101000a038019825116818451168082178552505050505050905001915050908152602001604051809103902060000160009054906101000a900473ffffffffffffffffffffffffffffffffffffffff1690505b919050565b61105461170d565b151561105f57600080fd5b806003836040518082805190602001908083835b6020831015156110985780518252602082019150602081019050602083039250611073565b6001836020036101000a038019825116818451168082178552505050505050905001915050908152602001604051809103902060006101000a81548173ffffffffffffffffffffffffffffffffffffffff021916908373ffffffffffffffffffffffffffffffffffffffff1602179055505050565b6000806002846040518082805190602001908083835b6020831015156111485780518252602082019150602081019050602083039250611123565b6001836020036101000a038019825116818451168082178552505050505050905001915050908152602001604051809103902060020154836040516020018082805190602001908083835b6020831015156111b85780518252602082019150602081019050602083039250611193565b6001836020036101000a038019825116818451168082178552505050505050905001915050604051602081830303815290604052805190602001201415611320576002846040518082805190602001908083835b602083101515611231578051825260208201915060208101905060208303925061120c565b6001836020036101000a038019825116818451168082178552505050505050905001915050908152602001604051809103902060000160009054906101000a900473ffffffffffffffffffffffffffffffffffffffff166002856040518082805190602001908083835b6020831015156112c0578051825260208201915060208101905060208303925061129b565b6001836020036101000a038019825116818451168082178552505050505050905001915050908152602001604051809103902060010160009054906101000a900473ffffffffffffffffffffffffffffffffffffffff169150915061132e565b600080819150809050915091505b9250929050565b6060604051908101604052808573ffffffffffffffffffffffffffffffffffffffff1681526020018473ffffffffffffffffffffffffffffffffffffffff168152602001826040516020018082805190602001908083835b6020831015156113b2578051825260208201915060208101905060208303925061138d565b6001836020036101000a038019825116818451168082178552505050505050905001915050604051602081830303815290604052805190602001208152506002836040518082805190602001908083835b6020831015156114285780518252602082019150602081019050602083039250611403565b6001836020036101000a038019825116818451168082178552505050505050905001915050908152602001604051809103902060008201518160000160006101000a81548173ffffffffffffffffffffffffffffffffffffffff021916908373ffffffffffffffffffffffffffffffffffffffff16021790555060208201518160010160006101000a81548173ffffffffffffffffffffffffffffffffffffffff021916908373ffffffffffffffffffffffffffffffffffffffff160217905550604082015181600201559050506005600081548092919060010191905055507f5d5723586cb5bff4848c6beade3f267b2ddb2b628c930469ef221c0fd53e08d6848484604051808473ffffffffffffffffffffffffffffffffffffffff1673ffffffffffffffffffffffffffffffffffffffff1681526020018373ffffffffffffffffffffffffffffffffffffffff1673ffffffffffffffffffffffffffffffffffffffff16815260200180602001828103825283818151815260200191508051906020019080838360005b838110156115d05780820151818401526020810190506115b5565b50505050905090810190601f1680156115fd5780820380516001836020036101000a031916815260200191505b5094505050505060405180910390a150505050565b61161a61170d565b151561162557600080fd5b600073ffffffffffffffffffffffffffffffffffffffff166000809054906101000a900473ffffffffffffffffffffffffffffffffffffffff1673ffffffffffffffffffffffffffffffffffffffff167f8be0079c531659141344cd1fd0a4f28419497f9722a3daafe3b4186f6b6457e060405160405180910390a360008060006101000a81548173ffffffffffffffffffffffffffffffffffffffff021916908373ffffffffffffffffffffffffffffffffffffffff160217905550565b60008060009054906101000a900473ffffffffffffffffffffffffffffffffffffffff16905090565b60008060009054906101000a900473ffffffffffffffffffffffffffffffffffffffff1673ffffffffffffffffffffffffffffffffffffffff163373ffffffffffffffffffffffffffffffffffffffff1614905090565b6000809054906101000a900473ffffffffffffffffffffffffffffffffffffffff1681565b60006003826040518082805190602001908083835b6020831015156117c3578051825260208201915060208101905060208303925061179e565b6001836020036101000a038019825116818451168082178552505050505050905001915050908152602001604051809103902060009054906101000a900473ffffffffffffffffffffffffffffffffffffffff169050919050565b6000600160009054906101000a900473ffffffffffffffffffffffffffffffffffffffff1673ffffffffffffffffffffffffffffffffffffffff163373ffffffffffffffffffffffffffffffffffffffff1614905090565b61187e61170d565b151561188957600080fd5b806004836040518082805190602001908083835b6020831015156118c2578051825260208201915060208101905060208303925061189d565b6001836020036101000a038019825116818451168082178552505050505050905001915050908152602001604051809103902060006101000a81548160ff0219169083151502179055505050565b600160009054906101000a900473ffffffffffffffffffffffffffffffffffffffff1681565b61193e61170d565b151561194957600080fd5b611952816119d7565b50565b60006004826040518082805190602001908083835b60208310151561198f578051825260208201915060208101905060208303925061196a565b6001836020036101000a038019825116818451168082178552505050505050905001915050908152602001604051809103902060009054906101000a900460ff169050919050565b600073ffffffffffffffffffffffffffffffffffffffff168173ffffffffffffffffffffffffffffffffffffffff1614151515611a1357600080fd5b8073ffffffffffffffffffffffffffffffffffffffff166000809054906101000a900473ffffffffffffffffffffffffffffffffffffffff1673ffffffffffffffffffffffffffffffffffffffff167f8be0079c531659141344cd1fd0a4f28419497f9722a3daafe3b4186f6b6457e060405160405180910390a3806000806101000a81548173ffffffffffffffffffffffffffffffffffffffff021916908373ffffffffffffffffffffffffffffffffffffffff1602179055505056fea165627a7a723058204d97b068941a16b36e9e56037630c28322b576307f21abd332c6de3780284d940029",
  "source": "pragma solidity ^0.5.0;\r\n// TODO\r\n// only manager ethereum account have access of this contract\r\nimport './Zeppelin/ownership/Ownable.sol';\r\n\r\ncontract UsersManager is Ownable{\r\n\tstruct User{\r\n\t\taddress account; // user account address\r\n\t\taddress contractUser; // \"User\" contract address\r\n\t\tbytes32 password; // User password hash value\r\n\t}\r\n\tevent NewUser(address userAccount, address contractAccount, string username);\r\n\tmapping (string => User) private userToAccount; // a storage for user and their account, key=username\r\n\tmapping (string => address) private SINToAccount; // key = SIN, value = account address\r\n\tmapping (string => bool) private SINToCredit; // key = SIN, value = credit free\r\n \r\n    function updateCredit(string memory _SIN, bool _credit) public onlyOwner{  \r\n        SINToCredit[_SIN] = _credit;\r\n    }\r\n    function getCredit(string memory _SIN) public view returns(bool credit){\r\n        return SINToCredit[_SIN];\r\n    }\r\n    function createSIN(string memory _SIN, address _user) public onlyOwner{//suppose happen once when user input SIN on first time  \r\n        SINToAccount[_SIN] = _user;\r\n    }\r\n\tfunction getUserBySIN(string memory _SIN)public view returns(address userContract){\r\n\t\treturn SINToAccount[_SIN];\r\n\t}\r\n\tfunction changeSIN(string memory _prevSIN, string memory _newSIN) public{ // very rare situtation when user inputed a wrong SIN\r\n\t\tSINToAccount[_newSIN] = SINToAccount[_prevSIN];\r\n\t\tSINToCredit[_newSIN] = SINToCredit[_prevSIN];\r\n\t}\r\n\tuint private count; // number of register User\r\n\tfunction checkValidateUsers(string memory _username) public view returns (address result){// see if input username already exist\r\n\t\tif(userToAccount[_username].account == address(0)){\r\n\t\t\treturn userToAccount[_username].account;\r\n\t\t}else\r\n\t\t\treturn userToAccount[_username].account;\r\n\t\t\r\n\t}\r\n\tfunction register(address _userAccount, address _userContract,\r\n\tstring memory _username, string memory _password) public{\r\n\t    // Adding address and username to mapping, userCount++\r\n\t\tuserToAccount[_username] = User(_userAccount, _userContract, keccak256(abi.encodePacked(_password)));\r\n\t\tcount++;\r\n\t\t//To log user register event\r\n\t\temit NewUser(_userAccount, _userContract, _username);\r\n\t}\r\n\tfunction login(string memory _username, string memory _password) public view \r\n\treturns (address userAccount, address userContract){\r\n\t\t// if username & password is correct, return user address\r\n\t\tif(keccak256(abi.encodePacked(_password)) == userToAccount[_username].password)\r\n\t    \treturn (userToAccount[_username].account, userToAccount[_username].contractUser);\r\n\t\telse\r\n\t\t\treturn (address(0),address(0));\r\n\t}\r\n\t\r\n}",
  "sourcePath": "D:/BlockChain Proj/idworld-truffle/contracts/UsersManager.sol",
  "compiler": {
    "name": "solc",
    "version": "0.5.0+commit.1d4f565a.Emscripten.clang"
  },
  "schemaVersion": "3.0.0",
  "updatedAt": "2019-03-24T19:46:30.676Z",
  "devdoc": {
    "methods": {
      "isOwner()": {
        "return": "true if `msg.sender` is the owner of the contract.\r"
      },
      "owner()": {
        "return": "the address of the owner.\r"
      },
      "renounceOwnership()": {
        "details": "Allows the current owner to relinquish control of the contract.\r"
      },
      "transferOwnership(address)": {
        "details": "Allows the current owner to transfer control of the contract to a newOwner.\r",
        "params": {
          "newOwner": "The address to transfer ownership to.\r"
        }
      }
    }
  },
  "userdoc": {
    "methods": {
      "renounceOwnership()": {
        "notice": "Renouncing to ownership will leave the contract without an owner.\r It will not be possible to call the functions with the `onlyOwner`\r modifier anymore.\r"
      }
    }
  }
}