{
  "contractName": "User",
  "abi": [
    {
      "constant": false,
      "inputs": [],
      "name": "renounceOwnership",
      "outputs": [],
      "payable": false,
      "stateMutability": "nonpayable",
      "type": "function"
    },
    {
      "constant": true,
      "inputs": [],
      "name": "owner",
      "outputs": [
        {
          "name": "",
          "type": "address"
        }
      ],
      "payable": false,
      "stateMutability": "view",
      "type": "function"
    },
    {
      "constant": true,
      "inputs": [],
      "name": "isOwner",
      "outputs": [
        {
          "name": "",
          "type": "bool"
        }
      ],
      "payable": false,
      "stateMutability": "view",
      "type": "function"
    },
    {
      "constant": true,
      "inputs": [],
      "name": "_owner",
      "outputs": [
        {
          "name": "",
          "type": "address"
        }
      ],
      "payable": false,
      "stateMutability": "view",
      "type": "function"
    },
    {
      "constant": true,
      "inputs": [],
      "name": "isManager",
      "outputs": [
        {
          "name": "",
          "type": "bool"
        }
      ],
      "payable": false,
      "stateMutability": "view",
      "type": "function"
    },
    {
      "constant": true,
      "inputs": [],
      "name": "_manager",
      "outputs": [
        {
          "name": "",
          "type": "address"
        }
      ],
      "payable": false,
      "stateMutability": "view",
      "type": "function"
    },
    {
      "constant": false,
      "inputs": [
        {
          "name": "newOwner",
          "type": "address"
        }
      ],
      "name": "transferOwnership",
      "outputs": [],
      "payable": false,
      "stateMutability": "nonpayable",
      "type": "function"
    },
    {
      "inputs": [
        {
          "name": "_userAccount",
          "type": "address"
        },
        {
          "name": "_username",
          "type": "string"
        },
        {
          "name": "_password",
          "type": "string"
        },
        {
          "name": "_first",
          "type": "string"
        },
        {
          "name": "_last",
          "type": "string"
        },
        {
          "name": "_email",
          "type": "string"
        }
      ],
      "payable": false,
      "stateMutability": "nonpayable",
      "type": "constructor"
    },
    {
      "anonymous": false,
      "inputs": [
        {
          "indexed": true,
          "name": "previousOwner",
          "type": "address"
        },
        {
          "indexed": true,
          "name": "newOwner",
          "type": "address"
        }
      ],
      "name": "OwnershipTransferred",
      "type": "event"
    },
    {
      "constant": true,
      "inputs": [],
      "name": "getDataField",
      "outputs": [
        {
          "name": "field",
          "type": "string"
        }
      ],
      "payable": false,
      "stateMutability": "view",
      "type": "function"
    },
    {
      "constant": false,
      "inputs": [
        {
          "name": "SIN",
          "type": "string"
        }
      ],
      "name": "setSIN",
      "outputs": [],
      "payable": false,
      "stateMutability": "nonpayable",
      "type": "function"
    },
    {
      "constant": true,
      "inputs": [],
      "name": "getSIN",
      "outputs": [
        {
          "name": "SIN",
          "type": "string"
        }
      ],
      "payable": false,
      "stateMutability": "view",
      "type": "function"
    },
    {
      "constant": false,
      "inputs": [],
      "name": "changeCrediteFreeState",
      "outputs": [],
      "payable": false,
      "stateMutability": "nonpayable",
      "type": "function"
    },
    {
      "constant": true,
      "inputs": [],
      "name": "getCrediteFreeState",
      "outputs": [
        {
          "name": "creditFree",
          "type": "bool"
        }
      ],
      "payable": false,
      "stateMutability": "view",
      "type": "function"
    },
    {
      "constant": false,
      "inputs": [
        {
          "name": "first",
          "type": "string"
        },
        {
          "name": "last",
          "type": "string"
        },
        {
          "name": "DoB",
          "type": "string"
        },
        {
          "name": "homeAddress",
          "type": "string"
        },
        {
          "name": "email",
          "type": "string"
        },
        {
          "name": "driver",
          "type": "string"
        },
        {
          "name": "passport",
          "type": "string"
        },
        {
          "name": "citizenship",
          "type": "string"
        },
        {
          "name": "phone",
          "type": "string"
        },
        {
          "name": "SIN",
          "type": "string"
        },
        {
          "name": "health",
          "type": "string"
        }
      ],
      "name": "setInfo",
      "outputs": [],
      "payable": false,
      "stateMutability": "nonpayable",
      "type": "function"
    },
    {
      "constant": false,
      "inputs": [
        {
          "name": "first",
          "type": "string"
        },
        {
          "name": "last",
          "type": "string"
        },
        {
          "name": "DoB",
          "type": "string"
        },
        {
          "name": "homeAddress",
          "type": "string"
        },
        {
          "name": "email",
          "type": "string"
        },
        {
          "name": "phone",
          "type": "string"
        }
      ],
      "name": "setBasicInfo",
      "outputs": [],
      "payable": false,
      "stateMutability": "nonpayable",
      "type": "function"
    },
    {
      "constant": false,
      "inputs": [
        {
          "name": "driver",
          "type": "string"
        },
        {
          "name": "passport",
          "type": "string"
        },
        {
          "name": "citizenship",
          "type": "string"
        },
        {
          "name": "health",
          "type": "string"
        }
      ],
      "name": "setPrivateInfo",
      "outputs": [],
      "payable": false,
      "stateMutability": "nonpayable",
      "type": "function"
    },
    {
      "constant": false,
      "inputs": [
        {
          "name": "headshot",
          "type": "string"
        }
      ],
      "name": "setHeadshot",
      "outputs": [],
      "payable": false,
      "stateMutability": "nonpayable",
      "type": "function"
    },
    {
      "constant": true,
      "inputs": [],
      "name": "getHeadshot",
      "outputs": [
        {
          "name": "headshot",
          "type": "string"
        }
      ],
      "payable": false,
      "stateMutability": "view",
      "type": "function"
    },
    {
      "constant": false,
      "inputs": [
        {
          "name": "citizenshipCard",
          "type": "string"
        }
      ],
      "name": "setCitizenshipCard",
      "outputs": [],
      "payable": false,
      "stateMutability": "nonpayable",
      "type": "function"
    },
    {
      "constant": true,
      "inputs": [],
      "name": "getCitizenshipCard",
      "outputs": [
        {
          "name": "citizenshipCard",
          "type": "string"
        }
      ],
      "payable": false,
      "stateMutability": "view",
      "type": "function"
    },
    {
      "constant": false,
      "inputs": [
        {
          "name": "healthCard",
          "type": "string"
        }
      ],
      "name": "setHealthCard",
      "outputs": [],
      "payable": false,
      "stateMutability": "nonpayable",
      "type": "function"
    },
    {
      "constant": true,
      "inputs": [],
      "name": "getHealthCard",
      "outputs": [
        {
          "name": "healthCard",
          "type": "string"
        }
      ],
      "payable": false,
      "stateMutability": "view",
      "type": "function"
    },
    {
      "constant": false,
      "inputs": [
        {
          "name": "driverCard",
          "type": "string"
        }
      ],
      "name": "setDriverCard",
      "outputs": [],
      "payable": false,
      "stateMutability": "nonpayable",
      "type": "function"
    },
    {
      "constant": true,
      "inputs": [],
      "name": "getDriverCard",
      "outputs": [
        {
          "name": "driverCard",
          "type": "string"
        }
      ],
      "payable": false,
      "stateMutability": "view",
      "type": "function"
    },
    {
      "constant": false,
      "inputs": [
        {
          "name": "passportImage",
          "type": "string"
        }
      ],
      "name": "setPassportImage",
      "outputs": [],
      "payable": false,
      "stateMutability": "nonpayable",
      "type": "function"
    },
    {
      "constant": false,
      "inputs": [],
      "name": "getPassportImage",
      "outputs": [
        {
          "name": "passportImage",
          "type": "string"
        }
      ],
      "payable": false,
      "stateMutability": "nonpayable",
      "type": "function"
    },
    {
      "constant": false,
      "inputs": [
        {
          "name": "biometric",
          "type": "string"
        }
      ],
      "name": "setBiometric",
      "outputs": [],
      "payable": false,
      "stateMutability": "nonpayable",
      "type": "function"
    },
    {
      "constant": true,
      "inputs": [],
      "name": "getBiometric",
      "outputs": [
        {
          "name": "biometric",
          "type": "string"
        }
      ],
      "payable": false,
      "stateMutability": "view",
      "type": "function"
    },
    {
      "constant": true,
      "inputs": [],
      "name": "getUsernamePass",
      "outputs": [
        {
          "name": "userName",
          "type": "string"
        },
        {
          "name": "password",
          "type": "string"
        }
      ],
      "payable": false,
      "stateMutability": "view",
      "type": "function"
    },
    {
      "constant": true,
      "inputs": [],
      "name": "getName",
      "outputs": [
        {
          "name": "first",
          "type": "string"
        },
        {
          "name": "last",
          "type": "string"
        }
      ],
      "payable": false,
      "stateMutability": "view",
      "type": "function"
    },
    {
      "constant": true,
      "inputs": [],
      "name": "getDoB",
      "outputs": [
        {
          "name": "DoB",
          "type": "string"
        }
      ],
      "payable": false,
      "stateMutability": "view",
      "type": "function"
    },
    {
      "constant": true,
      "inputs": [],
      "name": "getHomeAddress",
      "outputs": [
        {
          "name": "homeAddress",
          "type": "string"
        }
      ],
      "payable": false,
      "stateMutability": "view",
      "type": "function"
    },
    {
      "constant": true,
      "inputs": [],
      "name": "getEmail",
      "outputs": [
        {
          "name": "email",
          "type": "string"
        }
      ],
      "payable": false,
      "stateMutability": "view",
      "type": "function"
    },
    {
      "constant": true,
      "inputs": [],
      "name": "getDriver",
      "outputs": [
        {
          "name": "driver",
          "type": "string"
        }
      ],
      "payable": false,
      "stateMutability": "view",
      "type": "function"
    },
    {
      "constant": true,
      "inputs": [],
      "name": "getPassport",
      "outputs": [
        {
          "name": "passportNumber",
          "type": "string"
        }
      ],
      "payable": false,
      "stateMutability": "view",
      "type": "function"
    },
    {
      "constant": true,
      "inputs": [],
      "name": "getCitizenshipNumber",
      "outputs": [
        {
          "name": "citizenship",
          "type": "string"
        }
      ],
      "payable": false,
      "stateMutability": "view",
      "type": "function"
    },
    {
      "constant": true,
      "inputs": [],
      "name": "getPhone",
      "outputs": [
        {
          "name": "phone",
          "type": "string"
        }
      ],
      "payable": false,
      "stateMutability": "view",
      "type": "function"
    },
    {
      "constant": true,
      "inputs": [],
      "name": "getHealth",
      "outputs": [
        {
          "name": "health",
          "type": "string"
        }
      ],
      "payable": false,
      "stateMutability": "view",
      "type": "function"
    }
  ],
  "bytecode": "0x60806040523480156200001157600080fd5b506040516200410138038062004101833981018060405260c08110156200003757600080fd5b810190808051906020019092919080516401000000008111156200005a57600080fd5b828101905060208101848111156200007157600080fd5b81518560018202830111640100000000821117156200008f57600080fd5b50509291906020018051640100000000811115620000ac57600080fd5b82810190506020810184811115620000c357600080fd5b8151856001820283011164010000000082111715620000e157600080fd5b50509291906020018051640100000000811115620000fe57600080fd5b828101905060208101848111156200011557600080fd5b81518560018202830111640100000000821117156200013357600080fd5b505092919060200180516401000000008111156200015057600080fd5b828101905060208101848111156200016757600080fd5b81518560018202830111640100000000821117156200018557600080fd5b50509291906020018051640100000000811115620001a257600080fd5b82810190506020810184811115620001b957600080fd5b8151856001820283011164010000000082111715620001d757600080fd5b5050929190505050336000806101000a81548173ffffffffffffffffffffffffffffffffffffffff021916908373ffffffffffffffffffffffffffffffffffffffff16021790555033600160006101000a81548173ffffffffffffffffffffffffffffffffffffffff021916908373ffffffffffffffffffffffffffffffffffffffff1602179055506000809054906101000a900473ffffffffffffffffffffffffffffffffffffffff1673ffffffffffffffffffffffffffffffffffffffff16600073ffffffffffffffffffffffffffffffffffffffff167f8be0079c531659141344cd1fd0a4f28419497f9722a3daafe3b4186f6b6457e060405160405180910390a36102806040519081016040528086815260200185815260200184815260200183815260200160206040519081016040528060008152508152602001602060405190810160405280600081525081526020018281526020016020604051908101604052806000815250815260200160001515815260200160206040519081016040528060008152508152602001602060405190810160405280600081525081526020016020604051908101604052806000815250815260200160206040519081016040528060008152508152602001602060405190810160405280600081525081526020016020604051908101604052806000815250815260200160206040519081016040528060008152508152602001602060405190810160405280600081525081526020016020604051908101604052806000815250815260200160206040519081016040528060008152508152602001602060405190810160405280600081525081525060026000820151816000019080519060200190620004629291906200087a565b506020820151816001019080519060200190620004819291906200087a565b506040820151816002019080519060200190620004a09291906200087a565b506060820151816003019080519060200190620004bf9291906200087a565b506080820151816004019080519060200190620004de9291906200087a565b5060a0820151816005019080519060200190620004fd9291906200087a565b5060c08201518160060190805190602001906200051c9291906200087a565b5060e08201518160070190805190602001906200053b9291906200087a565b506101008201518160080160006101000a81548160ff0219169083151502179055506101208201518160090190805190602001906200057c9291906200087a565b5061014082015181600a0190805190602001906200059c9291906200087a565b5061016082015181600b019080519060200190620005bc9291906200087a565b5061018082015181600c019080519060200190620005dc9291906200087a565b506101a082015181600d019080519060200190620005fc9291906200087a565b506101c082015181600e0190805190602001906200061c9291906200087a565b506101e082015181600f0190805190602001906200063c9291906200087a565b506102008201518160100190805190602001906200065c9291906200087a565b506102208201518160110190805190602001906200067c9291906200087a565b506102408201518160120190805190602001906200069c9291906200087a565b50610260820151816013019080519060200190620006bc9291906200087a565b50905050620006da86620006e6640100000000026401000000009004565b50505050505062000929565b620006ff62000728640100000000026401000000009004565b15156200070b57600080fd5b62000725816200077f640100000000026401000000009004565b50565b60008060009054906101000a900473ffffffffffffffffffffffffffffffffffffffff1673ffffffffffffffffffffffffffffffffffffffff163373ffffffffffffffffffffffffffffffffffffffff1614905090565b600073ffffffffffffffffffffffffffffffffffffffff168173ffffffffffffffffffffffffffffffffffffffff1614151515620007bc57600080fd5b8073ffffffffffffffffffffffffffffffffffffffff166000809054906101000a900473ffffffffffffffffffffffffffffffffffffffff1673ffffffffffffffffffffffffffffffffffffffff167f8be0079c531659141344cd1fd0a4f28419497f9722a3daafe3b4186f6b6457e060405160405180910390a3806000806101000a81548173ffffffffffffffffffffffffffffffffffffffff021916908373ffffffffffffffffffffffffffffffffffffffff16021790555050565b828054600181600116156101000203166002900490600052602060002090601f016020900481019282601f10620008bd57805160ff1916838001178555620008ee565b82800160010185558215620008ee579182015b82811115620008ed578251825591602001919060010190620008d0565b5b509050620008fd919062000901565b5090565b6200092691905b808211156200092257600081600090555060010162000908565b5090565b90565b6137c880620009396000396000f3fe6080604052600436106101cd576000357c0100000000000000000000000000000000000000000000000000000000900463ffffffff16806317d7de7c146101d25780632726aa0f146102ce5780632b48f8671461035e57806333b35f9c146103ee578063446db8a71461047e578063478e84611461050e5780634baf81e01461059e57806350dd3cdd146105b5578063528eeb341461067d57806357e75efd14610745578063640e7fd5146107d55780636cfde14214610865578063715018a61461092d5780637e456293146109445780637e79e8ba14610a0c57806385ee0c5f14610a9c5780638863bab014610d295780638936457514610db95780638d10bdd914610e495780638da5cb5b14610ed95780638eb20b0b14610f305780638f32d59b14610fc05780639ca8849814610fef578063a88d37cc1461101e578063aedaf9d1146110e6578063b287ce18146114a1578063b2bdfa7b14611531578063c0a8c00114611588578063c29d647514611618578063c56a3e88146116e0578063c8c63ce21461170f578063cca1a5a514611dbe578063cf58438414611e4e578063db1fa68e14611ede578063ee45ef7514611fda578063f0329f6b146120a2578063f2fde38b146120f9575b600080fd5b3480156101de57600080fd5b506101e761214a565b604051808060200180602001838103835285818151815260200191508051906020019080838360005b8381101561022b578082015181840152602081019050610210565b50505050905090810190601f1680156102585780820380516001836020036101000a031916815260200191505b50838103825284818151815260200191508051906020019080838360005b83811015610291578082015181840152602081019050610276565b50505050905090810190601f1680156102be5780820380516001836020036101000a031916815260200191505b5094505050505060405180910390f35b3480156102da57600080fd5b506102e36122a9565b6040518080602001828103825283818151815260200191508051906020019080838360005b83811015610323578082015181840152602081019050610308565b50505050905090810190601f1680156103505780820380516001836020036101000a031916815260200191505b509250505060405180910390f35b34801561036a57600080fd5b506103736122cb565b6040518080602001828103825283818151815260200191508051906020019080838360005b838110156103b3578082015181840152602081019050610398565b50505050905090810190601f1680156103e05780820380516001836020036101000a031916815260200191505b509250505060405180910390f35b3480156103fa57600080fd5b50610403612383565b6040518080602001828103825283818151815260200191508051906020019080838360005b83811015610443578082015181840152602081019050610428565b50505050905090810190601f1680156104705780820380516001836020036101000a031916815260200191505b509250505060405180910390f35b34801561048a57600080fd5b50610493612428565b6040518080602001828103825283818151815260200191508051906020019080838360005b838110156104d35780820151818401526020810190506104b8565b50505050905090810190601f1680156105005780820380516001836020036101000a031916815260200191505b509250505060405180910390f35b34801561051a57600080fd5b506105236124e0565b6040518080602001828103825283818151815260200191508051906020019080838360005b83811015610563578082015181840152602081019050610548565b50505050905090810190601f1680156105905780820380516001836020036101000a031916815260200191505b509250505060405180910390f35b3480156105aa57600080fd5b506105b3612598565b005b3480156105c157600080fd5b5061067b600480360360208110156105d857600080fd5b81019080803590602001906401000000008111156105f557600080fd5b82018360208201111561060757600080fd5b8035906020019184600183028401116401000000008311171561062957600080fd5b91908080601f016020809104026020016040519081016040528093929190818152602001838380828437600081840152601f19601f8201169050808301925050505050505091929192905050506125ca565b005b34801561068957600080fd5b50610743600480360360208110156106a057600080fd5b81019080803590602001906401000000008111156106bd57600080fd5b8201836020820111156106cf57600080fd5b803590602001918460018302840111640100000000831117156106f157600080fd5b91908080601f016020809104026020016040519081016040528093929190818152602001838380828437600081840152601f19601f8201169050808301925050505050505091929192905050506125fa565b005b34801561075157600080fd5b5061075a61262a565b6040518080602001828103825283818151815260200191508051906020019080838360005b8381101561079a57808201518184015260208101905061077f565b50505050905090810190601f1680156107c75780820380516001836020036101000a031916815260200191505b509250505060405180910390f35b3480156107e157600080fd5b506107ea6126e2565b6040518080602001828103825283818151815260200191508051906020019080838360005b8381101561082a57808201518184015260208101905061080f565b50505050905090810190601f1680156108575780820380516001836020036101000a031916815260200191505b509250505060405180910390f35b34801561087157600080fd5b5061092b6004803603602081101561088857600080fd5b81019080803590602001906401000000008111156108a557600080fd5b8201836020820111156108b757600080fd5b803590602001918460018302840111640100000000831117156108d957600080fd5b91908080601f016020809104026020016040519081016040528093929190818152602001838380828437600081840152601f19601f82011690508083019250505050505050919291929050505061279a565b005b34801561093957600080fd5b506109426127ca565b005b34801561095057600080fd5b50610a0a6004803603602081101561096757600080fd5b810190808035906020019064010000000081111561098457600080fd5b82018360208201111561099657600080fd5b803590602001918460018302840111640100000000831117156109b857600080fd5b91908080601f016020809104026020016040519081016040528093929190818152602001838380828437600081840152601f19601f82011690508083019250505050505050919291929050505061289c565b005b348015610a1857600080fd5b50610a216128cc565b6040518080602001828103825283818151815260200191508051906020019080838360005b83811015610a61578082015181840152602081019050610a46565b50505050905090810190601f168015610a8e5780820380516001836020036101000a031916815260200191505b509250505060405180910390f35b348015610aa857600080fd5b50610d2760048036036080811015610abf57600080fd5b8101908080359060200190640100000000811115610adc57600080fd5b820183602082011115610aee57600080fd5b80359060200191846001830284011164010000000083111715610b1057600080fd5b91908080601f016020809104026020016040519081016040528093929190818152602001838380828437600081840152601f19601f82011690508083019250505050505050919291929080359060200190640100000000811115610b7357600080fd5b820183602082011115610b8557600080fd5b80359060200191846001830284011164010000000083111715610ba757600080fd5b91908080601f016020809104026020016040519081016040528093929190818152602001838380828437600081840152601f19601f82011690508083019250505050505050919291929080359060200190640100000000811115610c0a57600080fd5b820183602082011115610c1c57600080fd5b80359060200191846001830284011164010000000083111715610c3e57600080fd5b91908080601f016020809104026020016040519081016040528093929190818152602001838380828437600081840152601f19601f82011690508083019250505050505050919291929080359060200190640100000000811115610ca157600080fd5b820183602082011115610cb357600080fd5b80359060200191846001830284011164010000000083111715610cd557600080fd5b91908080601f016020809104026020016040519081016040528093929190818152602001838380828437600081840152601f19601f820116905080830192505050505050509192919290505050612984565b005b348015610d3557600080fd5b50610d3e612a05565b6040518080602001828103825283818151815260200191508051906020019080838360005b83811015610d7e578082015181840152602081019050610d63565b50505050905090810190601f168015610dab5780820380516001836020036101000a031916815260200191505b509250505060405180910390f35b348015610dc557600080fd5b50610dce612abd565b6040518080602001828103825283818151815260200191508051906020019080838360005b83811015610e0e578082015181840152602081019050610df3565b50505050905090810190601f168015610e3b5780820380516001836020036101000a031916815260200191505b509250505060405180910390f35b348015610e5557600080fd5b50610e5e612b75565b6040518080602001828103825283818151815260200191508051906020019080838360005b83811015610e9e578082015181840152602081019050610e83565b50505050905090810190601f168015610ecb5780820380516001836020036101000a031916815260200191505b509250505060405180910390f35b348015610ee557600080fd5b50610eee612c2d565b604051808273ffffffffffffffffffffffffffffffffffffffff1673ffffffffffffffffffffffffffffffffffffffff16815260200191505060405180910390f35b348015610f3c57600080fd5b50610f45612c56565b6040518080602001828103825283818151815260200191508051906020019080838360005b83811015610f85578082015181840152602081019050610f6a565b50505050905090810190601f168015610fb25780820380516001836020036101000a031916815260200191505b509250505060405180910390f35b348015610fcc57600080fd5b50610fd5612d0e565b604051808215151515815260200191505060405180910390f35b348015610ffb57600080fd5b50611004612d65565b604051808215151515815260200191505060405180910390f35b34801561102a57600080fd5b506110e46004803603602081101561104157600080fd5b810190808035906020019064010000000081111561105e57600080fd5b82018360208201111561107057600080fd5b8035906020019184600183028401116401000000008311171561109257600080fd5b91908080601f016020809104026020016040519081016040528093929190818152602001838380828437600081840152601f19601f820116905080830192505050505050509192919290505050612d7f565b005b3480156110f257600080fd5b5061149f600480360360c081101561110957600080fd5b810190808035906020019064010000000081111561112657600080fd5b82018360208201111561113857600080fd5b8035906020019184600183028401116401000000008311171561115a57600080fd5b91908080601f016020809104026020016040519081016040528093929190818152602001838380828437600081840152601f19601f820116905080830192505050505050509192919290803590602001906401000000008111156111bd57600080fd5b8201836020820111156111cf57600080fd5b803590602001918460018302840111640100000000831117156111f157600080fd5b91908080601f016020809104026020016040519081016040528093929190818152602001838380828437600081840152601f19601f8201169050808301925050505050505091929192908035906020019064010000000081111561125457600080fd5b82018360208201111561126657600080fd5b8035906020019184600183028401116401000000008311171561128857600080fd5b91908080601f016020809104026020016040519081016040528093929190818152602001838380828437600081840152601f19601f820116905080830192505050505050509192919290803590602001906401000000008111156112eb57600080fd5b8201836020820111156112fd57600080fd5b8035906020019184600183028401116401000000008311171561131f57600080fd5b91908080601f016020809104026020016040519081016040528093929190818152602001838380828437600081840152601f19601f8201169050808301925050505050505091929192908035906020019064010000000081111561138257600080fd5b82018360208201111561139457600080fd5b803590602001918460018302840111640100000000831117156113b657600080fd5b91908080601f016020809104026020016040519081016040528093929190818152602001838380828437600081840152601f19601f8201169050808301925050505050505091929192908035906020019064010000000081111561141957600080fd5b82018360208201111561142b57600080fd5b8035906020019184600183028401116401000000008311171561144d57600080fd5b91908080601f016020809104026020016040519081016040528093929190818152602001838380828437600081840152601f19601f820116905080830192505050505050509192919290505050612daf565b005b3480156114ad57600080fd5b506114b6612e65565b6040518080602001828103825283818151815260200191508051906020019080838360005b838110156114f65780820151818401526020810190506114db565b50505050905090810190601f1680156115235780820380516001836020036101000a031916815260200191505b509250505060405180910390f35b34801561153d57600080fd5b50611546612f1d565b604051808273ffffffffffffffffffffffffffffffffffffffff1673ffffffffffffffffffffffffffffffffffffffff16815260200191505060405180910390f35b34801561159457600080fd5b5061159d612f42565b6040518080602001828103825283818151815260200191508051906020019080838360005b838110156115dd5780820151818401526020810190506115c2565b50505050905090810190601f16801561160a5780820380516001836020036101000a031916815260200191505b509250505060405180910390f35b34801561162457600080fd5b506116de6004803603602081101561163b57600080fd5b810190808035906020019064010000000081111561165857600080fd5b82018360208201111561166a57600080fd5b8035906020019184600183028401116401000000008311171561168c57600080fd5b91908080601f016020809104026020016040519081016040528093929190818152602001838380828437600081840152601f19601f820116905080830192505050505050509192919290505050612ffa565b005b3480156116ec57600080fd5b506116f561302a565b604051808215151515815260200191505060405180910390f35b34801561171b57600080fd5b50611dbc600480360361016081101561173357600080fd5b810190808035906020019064010000000081111561175057600080fd5b82018360208201111561176257600080fd5b8035906020019184600183028401116401000000008311171561178457600080fd5b91908080601f016020809104026020016040519081016040528093929190818152602001838380828437600081840152601f19601f820116905080830192505050505050509192919290803590602001906401000000008111156117e757600080fd5b8201836020820111156117f957600080fd5b8035906020019184600183028401116401000000008311171561181b57600080fd5b91908080601f016020809104026020016040519081016040528093929190818152602001838380828437600081840152601f19601f8201169050808301925050505050505091929192908035906020019064010000000081111561187e57600080fd5b82018360208201111561189057600080fd5b803590602001918460018302840111640100000000831117156118b257600080fd5b91908080601f016020809104026020016040519081016040528093929190818152602001838380828437600081840152601f19601f8201169050808301925050505050505091929192908035906020019064010000000081111561191557600080fd5b82018360208201111561192757600080fd5b8035906020019184600183028401116401000000008311171561194957600080fd5b91908080601f016020809104026020016040519081016040528093929190818152602001838380828437600081840152601f19601f820116905080830192505050505050509192919290803590602001906401000000008111156119ac57600080fd5b8201836020820111156119be57600080fd5b803590602001918460018302840111640100000000831117156119e057600080fd5b91908080601f016020809104026020016040519081016040528093929190818152602001838380828437600081840152601f19601f82011690508083019250505050505050919291929080359060200190640100000000811115611a4357600080fd5b820183602082011115611a5557600080fd5b80359060200191846001830284011164010000000083111715611a7757600080fd5b91908080601f016020809104026020016040519081016040528093929190818152602001838380828437600081840152601f19601f82011690508083019250505050505050919291929080359060200190640100000000811115611ada57600080fd5b820183602082011115611aec57600080fd5b80359060200191846001830284011164010000000083111715611b0e57600080fd5b91908080601f016020809104026020016040519081016040528093929190818152602001838380828437600081840152601f19601f82011690508083019250505050505050919291929080359060200190640100000000811115611b7157600080fd5b820183602082011115611b8357600080fd5b80359060200191846001830284011164010000000083111715611ba557600080fd5b91908080601f016020809104026020016040519081016040528093929190818152602001838380828437600081840152601f19601f82011690508083019250505050505050919291929080359060200190640100000000811115611c0857600080fd5b820183602082011115611c1a57600080fd5b80359060200191846001830284011164010000000083111715611c3c57600080fd5b91908080601f016020809104026020016040519081016040528093929190818152602001838380828437600081840152601f19601f82011690508083019250505050505050919291929080359060200190640100000000811115611c9f57600080fd5b820183602082011115611cb157600080fd5b80359060200191846001830284011164010000000083111715611cd357600080fd5b91908080601f016020809104026020016040519081016040528093929190818152602001838380828437600081840152601f19601f82011690508083019250505050505050919291929080359060200190640100000000811115611d3657600080fd5b820183602082011115611d4857600080fd5b80359060200191846001830284011164010000000083111715611d6a57600080fd5b91908080601f016020809104026020016040519081016040528093929190818152602001838380828437600081840152601f19601f820116905080830192505050505050509192919290505050613082565b005b348015611dca57600080fd5b50611dd36131bf565b6040518080602001828103825283818151815260200191508051906020019080838360005b83811015611e13578082015181840152602081019050611df8565b50505050905090810190601f168015611e405780820380516001836020036101000a031916815260200191505b509250505060405180910390f35b348015611e5a57600080fd5b50611e63613277565b6040518080602001828103825283818151815260200191508051906020019080838360005b83811015611ea3578082015181840152602081019050611e88565b50505050905090810190601f168015611ed05780820380516001836020036101000a031916815260200191505b509250505060405180910390f35b348015611eea57600080fd5b50611ef361332f565b604051808060200180602001838103835285818151815260200191508051906020019080838360005b83811015611f37578082015181840152602081019050611f1c565b50505050905090810190601f168015611f645780820380516001836020036101000a031916815260200191505b50838103825284818151815260200191508051906020019080838360005b83811015611f9d578082015181840152602081019050611f82565b50505050905090810190601f168015611fca5780820380516001836020036101000a031916815260200191505b5094505050505060405180910390f35b348015611fe657600080fd5b506120a060048036036020811015611ffd57600080fd5b810190808035906020019064010000000081111561201a57600080fd5b82018360208201111561202c57600080fd5b8035906020019184600183028401116401000000008311171561204e57600080fd5b91908080601f016020809104026020016040519081016040528093929190818152602001838380828437600081840152601f19601f8201169050808301925050505050505091929192905050506134a2565b005b3480156120ae57600080fd5b506120b76134d2565b604051808273ffffffffffffffffffffffffffffffffffffffff1673ffffffffffffffffffffffffffffffffffffffff16815260200191505060405180910390f35b34801561210557600080fd5b506121486004803603602081101561211c57600080fd5b81019080803573ffffffffffffffffffffffffffffffffffffffff1690602001909291905050506134f8565b005b606080612155612d0e565b151561216057600080fd5b600280016002600301818054600181600116156101000203166002900480601f0160208091040260200160405190810160405280929190818152602001828054600181600116156101000203166002900480156121fe5780601f106121d3576101008083540402835291602001916121fe565b820191906000526020600020905b8154815290600101906020018083116121e157829003601f168201915b50505050509150808054600181600116156101000203166002900480601f01602080910402602001604051908101604052809291908181526020018280546001816001161561010002031660029004801561229a5780601f1061226f5761010080835404028352916020019161229a565b820191906000526020600020905b81548152906001019060200180831161227d57829003601f168201915b50505050509050915091509091565b60606101206040519081016040528060e681526020016136b760e69139905090565b60606122d5612d0e565b15156122e057600080fd5b6002600b018054600181600116156101000203166002900480601f0160208091040260200160405190810160405280929190818152602001828054600181600116156101000203166002900480156123795780601f1061234e57610100808354040283529160200191612379565b820191906000526020600020905b81548152906001019060200180831161235c57829003601f168201915b5050505050905090565b606060026013018054600181600116156101000203166002900480601f01602080910402602001604051908101604052809291908181526020018280546001816001161561010002031660029004801561241e5780601f106123f35761010080835404028352916020019161241e565b820191906000526020600020905b81548152906001019060200180831161240157829003601f168201915b5050505050905090565b6060612432612d0e565b151561243d57600080fd5b60026009018054600181600116156101000203166002900480601f0160208091040260200160405190810160405280929190818152602001828054600181600116156101000203166002900480156124d65780601f106124ab576101008083540402835291602001916124d6565b820191906000526020600020905b8154815290600101906020018083116124b957829003601f168201915b5050505050905090565b60606124ea612d0e565b15156124f557600080fd5b60026005018054600181600116156101000203166002900480601f01602080910402602001604051908101604052809291908181526020018280546001816001161561010002031660029004801561258e5780601f106125635761010080835404028352916020019161258e565b820191906000526020600020905b81548152906001019060200180831161257157829003601f168201915b5050505050905090565b600260080160009054906101000a900460ff1615600260080160006101000a81548160ff021916908315150217905550565b6125d261302a565b15156125dd57600080fd5b80600260110190805190602001906125f6929190613611565b5050565b61260261302a565b151561260d57600080fd5b8060026013019080519060200190612626929190613611565b5050565b6060612634612d0e565b151561263f57600080fd5b60026004018054600181600116156101000203166002900480601f0160208091040260200160405190810160405280929190818152602001828054600181600116156101000203166002900480156126d85780601f106126ad576101008083540402835291602001916126d8565b820191906000526020600020905b8154815290600101906020018083116126bb57829003601f168201915b5050505050905090565b60606126ec612d0e565b15156126f757600080fd5b6002600d018054600181600116156101000203166002900480601f0160208091040260200160405190810160405280929190818152602001828054600181600116156101000203166002900480156127905780601f1061276557610100808354040283529160200191612790565b820191906000526020600020905b81548152906001019060200180831161277357829003601f168201915b5050505050905090565b6127a261302a565b15156127ad57600080fd5b806002600e0190805190602001906127c6929190613611565b5050565b6127d2612d0e565b15156127dd57600080fd5b600073ffffffffffffffffffffffffffffffffffffffff166000809054906101000a900473ffffffffffffffffffffffffffffffffffffffff1673ffffffffffffffffffffffffffffffffffffffff167f8be0079c531659141344cd1fd0a4f28419497f9722a3daafe3b4186f6b6457e060405160405180910390a360008060006101000a81548173ffffffffffffffffffffffffffffffffffffffff021916908373ffffffffffffffffffffffffffffffffffffffff160217905550565b6128a461302a565b15156128af57600080fd5b80600260120190805190602001906128c8929190613611565b5050565b60606128d6612d0e565b15156128e157600080fd5b60026006018054600181600116156101000203166002900480601f01602080910402602001604051908101604052809291908181526020018280546001816001161561010002031660029004801561297a5780601f1061294f5761010080835404028352916020019161297a565b820191906000526020600020905b81548152906001019060200180831161295d57829003601f168201915b5050505050905090565b61298c61302a565b151561299757600080fd5b83600260090190805190602001906129b0929190613611565b50826002600a0190805190602001906129ca929190613611565b50816002600b0190805190602001906129e4929190613611565b50806002600d0190805190602001906129fe929190613611565b5050505050565b6060612a0f612d0e565b1515612a1a57600080fd5b60026007018054600181600116156101000203166002900480601f016020809104026020016040519081016040528092919081815260200182805460018160011615610100020316600290048015612ab35780601f10612a8857610100808354040283529160200191612ab3565b820191906000526020600020905b815481529060010190602001808311612a9657829003601f168201915b5050505050905090565b6060612ac7612d0e565b1515612ad257600080fd5b6002600c018054600181600116156101000203166002900480601f016020809104026020016040519081016040528092919081815260200182805460018160011615610100020316600290048015612b6b5780601f10612b4057610100808354040283529160200191612b6b565b820191906000526020600020905b815481529060010190602001808311612b4e57829003601f168201915b5050505050905090565b6060612b7f612d0e565b1515612b8a57600080fd5b60026011018054600181600116156101000203166002900480601f016020809104026020016040519081016040528092919081815260200182805460018160011615610100020316600290048015612c235780601f10612bf857610100808354040283529160200191612c23565b820191906000526020600020905b815481529060010190602001808311612c0657829003601f168201915b5050505050905090565b60008060009054906101000a900473ffffffffffffffffffffffffffffffffffffffff16905090565b6060612c60612d0e565b1515612c6b57600080fd5b6002600a018054600181600116156101000203166002900480601f016020809104026020016040519081016040528092919081815260200182805460018160011615610100020316600290048015612d045780601f10612cd957610100808354040283529160200191612d04565b820191906000526020600020905b815481529060010190602001808311612ce757829003601f168201915b5050505050905090565b60008060009054906101000a900473ffffffffffffffffffffffffffffffffffffffff1673ffffffffffffffffffffffffffffffffffffffff163373ffffffffffffffffffffffffffffffffffffffff1614905090565b6000600260080160009054906101000a900460ff16905090565b612d8761302a565b1515612d9257600080fd5b806002600c019080519060200190612dab929190613611565b5050565b612db761302a565b1515612dc257600080fd5b85600280019080519060200190612dda929190613611565b508460026003019080519060200190612df4929190613611565b508360026004019080519060200190612e0e929190613611565b508260026005019080519060200190612e28929190613611565b508160026006019080519060200190612e42929190613611565b508060026007019080519060200190612e5c929190613611565b50505050505050565b6060612e6f612d0e565b1515612e7a57600080fd5b6002600f018054600181600116156101000203166002900480601f016020809104026020016040519081016040528092919081815260200182805460018160011615610100020316600290048015612f135780601f10612ee857610100808354040283529160200191612f13565b820191906000526020600020905b815481529060010190602001808311612ef657829003601f168201915b5050505050905090565b6000809054906101000a900473ffffffffffffffffffffffffffffffffffffffff1681565b6060612f4c612d0e565b1515612f5757600080fd5b6002600e018054600181600116156101000203166002900480601f016020809104026020016040519081016040528092919081815260200182805460018160011615610100020316600290048015612ff05780601f10612fc557610100808354040283529160200191612ff0565b820191906000526020600020905b815481529060010190602001808311612fd357829003601f168201915b5050505050905090565b61300261302a565b151561300d57600080fd5b8060026010019080519060200190613026929190613611565b5050565b6000600160009054906101000a900473ffffffffffffffffffffffffffffffffffffffff1673ffffffffffffffffffffffffffffffffffffffff163373ffffffffffffffffffffffffffffffffffffffff1614905090565b61308a61302a565b151561309557600080fd5b8a6002800190805190602001906130ad929190613611565b5089600260030190805190602001906130c7929190613611565b5088600260040190805190602001906130e1929190613611565b5087600260050190805190602001906130fb929190613611565b508660026006019080519060200190613115929190613611565b50826002600701908051906020019061312f929190613611565b508560026009019080519060200190613149929190613611565b50846002600a019080519060200190613163929190613611565b50836002600b01908051906020019061317d929190613611565b50816002600c019080519060200190613197929190613611565b50806002600d0190805190602001906131b1929190613611565b505050505050505050505050565b60606131c9612d0e565b15156131d457600080fd5b60026010018054600181600116156101000203166002900480601f01602080910402602001604051908101604052809291908181526020018280546001816001161561010002031660029004801561326d5780601f106132425761010080835404028352916020019161326d565b820191906000526020600020905b81548152906001019060200180831161325057829003601f168201915b5050505050905090565b6060613281612d0e565b151561328c57600080fd5b60026012018054600181600116156101000203166002900480601f0160208091040260200160405190810160405280929190818152602001828054600181600116156101000203166002900480156133255780601f106132fa57610100808354040283529160200191613325565b820191906000526020600020905b81548152906001019060200180831161330857829003601f168201915b5050505050905090565b60608061333a612d0e565b151561334557600080fd5b61334d612d0e565b151561335857600080fd5b60026000016002600101818054600181600116156101000203166002900480601f0160208091040260200160405190810160405280929190818152602001828054600181600116156101000203166002900480156133f75780601f106133cc576101008083540402835291602001916133f7565b820191906000526020600020905b8154815290600101906020018083116133da57829003601f168201915b50505050509150808054600181600116156101000203166002900480601f0160208091040260200160405190810160405280929190818152602001828054600181600116156101000203166002900480156134935780601f1061346857610100808354040283529160200191613493565b820191906000526020600020905b81548152906001019060200180831161347657829003601f168201915b50505050509050915091509091565b6134aa61302a565b15156134b557600080fd5b806002600f0190805190602001906134ce929190613611565b5050565b600160009054906101000a900473ffffffffffffffffffffffffffffffffffffffff1681565b613500612d0e565b151561350b57600080fd5b61351481613517565b50565b600073ffffffffffffffffffffffffffffffffffffffff168173ffffffffffffffffffffffffffffffffffffffff161415151561355357600080fd5b8073ffffffffffffffffffffffffffffffffffffffff166000809054906101000a900473ffffffffffffffffffffffffffffffffffffffff1673ffffffffffffffffffffffffffffffffffffffff167f8be0079c531659141344cd1fd0a4f28419497f9722a3daafe3b4186f6b6457e060405160405180910390a3806000806101000a81548173ffffffffffffffffffffffffffffffffffffffff021916908373ffffffffffffffffffffffffffffffffffffffff16021790555050565b828054600181600116156101000203166002900490600052602060002090601f016020900481019282601f1061365257805160ff1916838001178555613680565b82800160010185558215613680579182015b8281111561367f578251825591602001919060010190613664565b5b50905061368d9190613691565b5090565b6136b391905b808211156136af576000816000905550600101613697565b5090565b9056fe757365726e616d652c70617373776f72642c66697273742c6c6173742c6865616473686f742c62696f6d65747269632c647269766572436172642c6865616c7468436172642c636974697a656e73686970436172642c446f422c686f6d65416464726573732c656d61696c2c6472697665722c70617373706f72744e756d6265722c636974697a656e736869702c70686f6e652c53494e2c6865616c74682c6865616473686f742c62696f6d6574657269632c647269766572436172642c6865616c7468436172642c636974697a656e73686970436172642c70617373706f7274496d616765a165627a7a72305820d2d78a93b45b2823db2659405fe937634219759ee97629937341488a13f73ae50029",
  "source": "pragma solidity ^0.5.0;\r\nimport './Zeppelin/ownership/Ownable.sol';\r\ncontract User is Ownable{\r\n    /*   \r\n    TODO\r\n\r\n    */\r\n    // only UserManager has privilege to set value of Info \r\n    struct Info{\r\n        string username;\r\n        string password; // hash of password\r\n        string first;\r\n        string last;\r\n        string DoB;\r\n        string homeAddress;\r\n        string email;\r\n        string phone;\r\n        bool creditFree;\r\n        string driver;\r\n        string passportNumber;\r\n        string citizenship;\r\n        // string mobile\r\n        string SIN;\r\n        string health;\r\n        // IPFS headshot\r\n        string headshot;\r\n        // IPFS biometric\r\n        string biometric;\r\n        // IPFS driverCard\r\n        string driverCard;\r\n        // IPFS healthCard\r\n        string healthCard;\r\n        // IPFS citizenshipCard\r\n        string citizenshipCard;\r\n        // IPFS passportImage\r\n        string passportImage;\r\n    }\r\n    Info private personalInfo;\r\n    // Call by Web3 deploy\r\n    constructor (address _userAccount,string memory _username, string memory _password,\r\n    string memory _first, string memory _last, string memory _email) public{\r\n        personalInfo = Info(_username, _password, _first, _last, \"\" , \"\",\r\n        _email, \"\",false, \"\", \"\", \"\", \"\",\"\",\"\",\"\",\"\",\"\",\"\",\"\");\r\n        // set owner of contract to current user\r\n        transferOwnership(_userAccount);\r\n    }\r\n    function getDataField() public view returns(string memory field){\r\n        return \"username,password,first,last,headshot,biometric,driverCard,healthCard,citizenshipCard,DoB,homeAddress,email,driver,passportNumber,citizenship,phone,SIN,health,headshot,biometeric,driverCard,healthCard,citizenshipCard,passportImage\";\r\n    }\r\n    function setSIN(string memory SIN) public onlyManager{\r\n        personalInfo.SIN = SIN;\r\n    }\r\n    function getSIN() public view onlyOwner returns(string memory SIN){\r\n        return personalInfo.SIN;\r\n    }\r\n    function changeCrediteFreeState() public{\r\n        personalInfo.creditFree = !personalInfo.creditFree;\r\n    }\r\n    function getCrediteFreeState() public view returns(bool creditFree){\r\n        return personalInfo.creditFree;\r\n    }\r\n    // only User account can call this method\r\n    function setInfo(string memory first, string memory last, string memory DoB,\r\n    string memory homeAddress, string memory email, string memory driver, \r\n    string memory passport, string memory citizenship, string memory phone, \r\n    string memory SIN, string memory health) public onlyManager \r\n    {\r\n        personalInfo.first = first;\r\n        personalInfo.last = last;\r\n        personalInfo.DoB = DoB;\r\n        personalInfo.homeAddress = homeAddress;\r\n        personalInfo.email = email;\r\n        personalInfo.phone = phone;\r\n\r\n        personalInfo.driver = driver;\r\n        personalInfo.passportNumber = passport; \r\n        personalInfo.citizenship = citizenship;\r\n        personalInfo.SIN = SIN;\r\n        personalInfo.health = health;\r\n    }\r\n    function setBasicInfo(string memory first, string memory last, string memory DoB,\r\n    string memory homeAddress, string memory email, string memory phone) public onlyManager \r\n    {\r\n        personalInfo.first = first;\r\n        personalInfo.last = last;\r\n        personalInfo.DoB = DoB;\r\n        personalInfo.homeAddress = homeAddress;\r\n        personalInfo.email = email;\r\n        personalInfo.phone = phone;\r\n    }\r\n    function setPrivateInfo(string memory driver,string memory passport, \r\n    string memory citizenship, string memory health) public onlyManager \r\n    {\r\n        personalInfo.driver = driver;\r\n        personalInfo.passportNumber = passport; \r\n        personalInfo.citizenship = citizenship;\r\n        personalInfo.health = health;\r\n    }\r\n\r\n\r\n    function setHeadshot(string memory headshot)public onlyManager{\r\n        personalInfo.headshot = headshot;\r\n    }\r\n    function getHeadshot() public view onlyOwner returns(string memory headshot){\r\n        return personalInfo.headshot;\r\n    }\r\n    function setCitizenshipCard(string memory citizenshipCard)public onlyManager{\r\n        personalInfo.citizenshipCard = citizenshipCard;\r\n    }\r\n    function getCitizenshipCard()  public view onlyOwner returns(string memory citizenshipCard){\r\n        return personalInfo.citizenshipCard;\r\n    }\r\n    function setHealthCard(string memory healthCard)public onlyManager{\r\n        personalInfo.healthCard = healthCard;\r\n    }\r\n    function getHealthCard()  public view onlyOwner returns(string memory healthCard){\r\n        return personalInfo.healthCard;\r\n    }\r\n    function setDriverCard(string memory driverCard)public onlyManager{\r\n        personalInfo.driverCard = driverCard;\r\n    }\r\n    function getDriverCard()  public view onlyOwner returns(string memory driverCard){\r\n        return personalInfo.driverCard;\r\n    }\r\n    function setPassportImage(string memory passportImage)public onlyManager{\r\n        personalInfo.passportImage = passportImage;\r\n    }\r\n    function getPassportImage() public returns(string memory passportImage){\r\n        return personalInfo.passportImage;\r\n    }\r\n    function setBiometric(string memory biometric)public onlyManager{\r\n        personalInfo.biometric = biometric;\r\n    }\r\n    function getBiometric()  public view onlyOwner returns(string memory biometric){\r\n        return personalInfo.biometric;\r\n    }\r\n    function getUsernamePass()  public view onlyOwner onlyOwner \r\n    returns(string memory userName, string memory password){\r\n        return (personalInfo.username, personalInfo.password);\r\n    }\r\n    // function setUsername(string memory username) public onlyManager \r\n    // {\r\n    //     personalInfo.username = username;\r\n    // }\r\n    function getName()  public view onlyOwner \r\n    returns(string memory first, string memory last){\r\n        return (personalInfo.first, personalInfo.last);\r\n    }\r\n    // function setName(string memory first,string memory last) public onlyManager \r\n    // {\r\n    //     personalInfo.first = first;\r\n    //     personalInfo.last = last;\r\n    // }\r\n    function getDoB()  public view onlyOwner \r\n    returns(string memory DoB){\r\n        return personalInfo.DoB;\r\n    }\r\n    // function setDoB(string memory DoB) public onlyManager \r\n    // {\r\n    //     personalInfo.DoB = DoB;\r\n    // }\r\n    function getHomeAddress() public view onlyOwner \r\n    returns(string memory homeAddress){\r\n        return personalInfo.homeAddress;\r\n    }\r\n    // function setHomeAddress(string memory homeAddress) public onlyManager \r\n    // {\r\n    //     personalInfo.homeAddress = homeAddress;\r\n    // }\r\n    function getEmail() public view onlyOwner \r\n    returns(string memory email){\r\n        return personalInfo.email;\r\n    }\r\n    // function setEmail(string memory email) public onlyManager \r\n    // {\r\n    //     personalInfo.email = email;\r\n    // }\r\n    function getDriver() public view onlyOwner \r\n    returns(string memory driver){\r\n        return personalInfo.driver;\r\n    }\r\n    // function setDriver(string memory driver) public onlyManager \r\n    // {\r\n    //     personalInfo.driver = driver;\r\n    // }\r\n    function getPassport() public view onlyOwner \r\n    returns(string memory passportNumber){\r\n        return personalInfo.passportNumber;\r\n    }\r\n    // function setPassport(string memory passport) public onlyManager \r\n    // {\r\n    //     personalInfo.passportNumber = passport;\r\n    // }\r\n    function getCitizenshipNumber() public view onlyOwner \r\n    returns(string memory citizenship){\r\n        return personalInfo.citizenship;\r\n    }\r\n    // function setCitizenshipNumber(string memory citizenship) public onlyManager \r\n    // {\r\n    //     personalInfo.citizenship = citizenship;\r\n    // }\r\n    function getPhone() public view onlyOwner \r\n    returns(string memory phone){\r\n        return personalInfo.phone;\r\n    }\r\n    function getHealth() public view onlyOwner \r\n    returns(string memory health){\r\n        return personalInfo.health;\r\n    }\r\n    // function setHealth(string memory health) public onlyManager \r\n    // {\r\n    //     personalInfo.health = health;\r\n    // }\r\n}\r\n\r\n",
  "sourcePath": "D:/BlockChain Proj/idworld-truffle/contracts/User.sol",
  "compiler": {
    "name": "solc",
    "version": "0.5.0+commit.1d4f565a.Emscripten.clang"
  },
  "schemaVersion": "3.0.0",
  "updatedAt": "2019-03-17T02:56:44.703Z",
  "devdoc": {
    "methods": {
      "isOwner()": {
        "return": "true if `msg.sender` is the owner of the contract.\r"
      },
      "owner()": {
        "return": "the address of the owner.\r"
      },
      "renounceOwnership()": {
        "details": "Allows the current owner to relinquish control of the contract.\r"
      },
      "transferOwnership(address)": {
        "details": "Allows the current owner to transfer control of the contract to a newOwner.\r",
        "params": {
          "newOwner": "The address to transfer ownership to.\r"
        }
      }
    }
  },
  "userdoc": {
    "methods": {
      "renounceOwnership()": {
        "notice": "Renouncing to ownership will leave the contract without an owner.\r It will not be possible to call the functions with the `onlyOwner`\r modifier anymore.\r"
      }
    }
  }
}